:020000040000fa
:080000000002040000000000f2
:020000040000fa
:04000800de0900000d
:020000040000fa
:04000c00de09000009
:020000040000fa
:04001000de09000005
:020000040000fa
:04001400de09000001
:020000040000fa
:04001800de090000fd
:020000040000fa
:04001c00de090000f9
:020000040000fa
:04002000de090000f5
:020000040000fa
:04002400de090000f1
:020000040000fa
:04002800de090000ed
:020000040000fa
:04002c00de090000e9
:020000040000fa
:04003000de090000e5
:020000040000fa
:04003400fe020000c8
:020000040000fa
:04003800de090000dd
:020000040000fa
:04003c00de090000d9
:020000040000fa
:04004000de090000d5
:020000040000fa
:04004400de090000d1
:020000040000fa
:04004800de090000cd
:020000040000fa
:04004c00de090000c9
:020000040000fa
:04005000de090000c5
:020000040000fa
:040054007003000035
:020000040000fa
:04005800c2030000df
:020000040000fa
:04005c00de090000b9
:020000040000fa
:04006000de090000b5
:020000040000fa
:04006400de090000b1
:020000040000fa
:04006800de090000ad
:020000040000fa
:04006c00de090000a9
:020000040000fa
:04007000de090000a5
:020000040000fa
:04007400de090000a1
:020000040000fa
:04007800de0900009d
:020000040000fa
:04007c00de09000099
:020000040000fa
:04008000de09000095
:020000040000fa
:04008400de09000091
:020000040000fa
:04008800de0900008d
:020000040000fa
:04008c00de09000089
:020000040000fa
:04009000de09000085
:020000040000fa
:04009400de09000081
:020000040000fa
:04009800de0900007d
:020000040000fa
:04009c00de09000079
:020000040000fa
:0400a000de09000075
:020000040000fa
:0400a400de09000071
:020000040000fa
:0400a800de0900006d
:020000040000fa
:0400ac00de09000069
:020000040000fa
:0400b000de09000065
:020000040000fa
:0400b400de09000061
:020000040000fa
:0400b800de0900005d
:020000040000fa
:0400bc00de09000059
:020000040000fa
:0400c000de09000055
:020000040000fa
:0400c400de09000051
:020000040000fa
:0400c800de0900004d
:020000040000fa
:0400cc00de09000049
:020000040000fa
:0400d000de09000045
:020000040000fa
:0400d400de09000041
:020000040000fa
:0400d800de0900003d
:020000040000fa
:0400dc00de09000039
:020000040000fa
:0400e000de09000035
:020000040000fa
:0400e400de09000031
:020000040000fa
:0400e800de0900002d
:020000040000fa
:0400ec00de09000029
:020000040000fa
:0400f000de09000025
:020000040000fa
:0400f400de09000021
:020000040000fa
:0400f800de0900001d
:020000040000fa
:0400fc00de09000019
:020000040000fa
:04010000de09000014
:020000040000fa
:04010400de09000010
:020000040000fa
:04010800de0900000c
:020000040000fa
:04010c00de09000008
:020000040000fa
:04011000de09000004
:020000040000fa
:04011400de09000000
:020000040000fa
:04011800de090000fc
:020000040000fa
:04011c00de090000f8
:020000040000fa
:04012000de090000f4
:020000040000fa
:04012400de090000f0
:020000040000fa
:04012800de090000ec
:020000040000fa
:04012c00de090000e8
:020000040000fa
:04013000de090000e4
:020000040000fa
:04013400de090000e0
:020000040000fa
:04013800de090000dc
:020000040000fa
:04013c00de090000d8
:020000040000fa
:04014000de090000d4
:020000040000fa
:04014400de090000d0
:020000040000fa
:04014800de090000cc
:020000040000fa
:04014c00de090000c8
:020000040000fa
:04015000de090000c4
:020000040000fa
:04015400de090000c0
:020000040000fa
:04015800de090000bc
:020000040000fa
:04015c00de090000b8
:020000040000fa
:04016000de090000b4
:020000040000fa
:04016400de090000b0
:020000040000fa
:04016800de090000ac
:020000040000fa
:04016c00de090000a8
:020000040000fa
:04017000de090000a4
:020000040000fa
:04017400de090000a0
:020000040000fa
:04017800de0900009c
:020000040000fa
:04017c00de09000098
:020000040000fa
:04018000de09000094
:020000040000fa
:04018400de09000090
:020000040000fa
:04018800de0900008c
:020000040000fa
:04018c00de09000088
:020000040000fa
:04019000de09000084
:020000040000fa
:04019400de09000080
:020000040000fa
:04019800de0900007c
:020000040000fa
:04019c00de09000078
:020000040000fa
:0401a000de09000074
:020000040000fa
:0401a400de09000070
:020000040000fa
:0401a800de0900006c
:020000040000fa
:0401ac00de09000068
:020000040000fa
:0401b000de09000064
:020000040000fa
:0401b400de09000060
:020000040000fa
:0401b800de0900005c
:020000040000fa
:0401bc00de09000058
:020000040000fa
:0401c000de09000054
:020000040000fa
:0401c400de09000050
:020000040000fa
:0401c800de0900004c
:020000040000fa
:0401cc00de09000048
:020000040000fa
:0401d000de09000044
:020000040000fa
:0401d400de09000040
:020000040000fa
:0401d800de0900003c
:020000040000fa
:0401dc00de09000038
:020000040000fa
:0401e000de09000034
:020000040000fa
:0401e400de09000030
:020000040000fa
:0401e800de0900002c
:020000040000fa
:0401ec00fa03000012
:020000040000fa
:0401f000de09000024
:020000040000fa
:0401f400de09000020
:020000040000fa
:0401f800de0900001c
:020000040000fa
:0401fc00de09000018
:020000040000fa
:04020000de09000013
:020000040000fa
:04020400de0900000f
:020000040000fa
:04020800de0900000b
:020000040000fa
:04020c00de09000007
:020000040000fa
:04021000de09000003
:020000040000fa
:04021400de090000ff
:020000040000fa
:04021800de090000fb
:020000040000fa
:04021c00de090000f7
:020000040000fa
:04022000de090000f3
:020000040000fa
:04022400de090000ef
:020000040000fa
:04022800de090000eb
:020000040000fa
:04022c00de090000e7
:020000040000fa
:04023000de090000e3
:020000040000fa
:04023400de090000df
:020000040000fa
:04023800de090000db
:020000040000fa
:04023c00de090000d7
:020000040000fa
:04024000de090000d3
:020000040000fa
:04024400de090000cf
:020000040000fa
:04024800de090000cb
:020000040000fa
:04024c00de090000c7
:020000040000fa
:04025000de090000c3
:020000040000fa
:04025400de090000bf
:020000040000fa
:04025800de090000bb
:020000040000fa
:04025c00de090000b7
:020000040000fa
:04026000de090000b3
:020000040000fa
:04026400de090000af
:020000040000fa
:04026800de090000ab
:020000040000fa
:04026c00de090000a7
:020000040000fa
:04027000de090000a3
:020000040000fa
:04027400de0900009f
:020000040000fa
:04027800de0900009b
:020000040000fa
:04027c00de09000097
:020000040000fa
:04028000de09000093
:020000040000fa
:04028400de0900008f
:020000040000fa
:04028800de0900008b
:020000040000fa
:04028c00de09000087
:020000040000fa
:04029000de09000083
:020000040000fa
:04029400de0900007f
:020000040000fa
:04029800de0900007b
:020000040000fa
:04029c00de09000077
:020000040000fa
:0402a000de09000073
:020000040000fa
:0402a400de0900006f
:020000040000fa
:0402a800de0900006b
:020000040000fa
:0402ac00de09000067
:020000040000fa
:0402b000de09000063
:020000040000fa
:0402b400de0900005f
:020000040000fa
:0402b800de0900005b
:020000040000fa
:0402bc00de09000057
:020000040000fa
:0402c000de09000053
:020000040000fa
:0402c400de0900004f
:020000040000fa
:0402c800de0900004b
:020000040000fa
:0402cc00de09000047
:020000040000fa
:0402d000de09000043
:020000040000fa
:0402d400de0900003f
:020000040000fa
:0402d800de0900003b
:020000040000fa
:0402dc00de09000037
:020000040000fa
:0402e000de09000033
:020000040000fa
:0402e400de0900002f
:020000040000fa
:0402e800de0900002b
:020000040000fa
:0402ec00de09000027
:020000040000fa
:0402f000de09000023
:020000040000fa
:0402f400de0900001f
:020000040000fa
:0402f800de0900001b
:020000040000fa
:100400002f1321000e7f21000e0188000000000044
:10041000000020000000e000020032000001200087
:100420002002880014000700e60307000000e00037
:1004300003003a00c05b22000100200002003700e8
:100440000000200001002000810f70000100320038
:100450000f000700000020000000e0000200320052
:1004600000000200000000008a23020000000000db
:100470000040da000000fe00803520000000e000af
:1004800002003200002020009001880000000600d9
:10049000a1028800800478000000eb001f003700f4
:1004a000e284440054a0b4009905ba00e2844400f8
:1004b00054a0b4009906ba00e284440054a0b400e9
:1004c0000006eb00476fde00fd07b200ae018800ba
:1004d000636ce10003003a000ad801000000eb0061
:1004e0000e003700606ce10008003a00004deb00a0
:1004f0000a05e800020039003420ec000af0a000f0
:100500008b05e900f9ff3e00040037006168e10057
:10051000010032000086eb000b00070019c7ba008b
:100520000e04e0001905ba0003003a000a00e000da
:10053000dbff3a0000000600fe07b200ae028800b2
:100540008a047800f5ff37000cd0a300e20f4d00bd
:100550001c00390089027800354dba000a05e80010
:10056000020039003420ec000af0a0008b05e900fd
:100570000f003200254dba000a05e80002003900dc
:100580003420ec000af0a0008b05e90008003200de
:100590000c00e0000600320015cdba000a05e800a4
:1005a000020039003420ec000af0a0008b05e900bd
:1005b0008984e80054a0b4000b00e000e2ff3a0098
:1005c000000006009902ba00055d78008b05e9007d
:1005d000f7ff3200c82ade00055d78008b05e900d0
:1005e000f3ff32000c00e000f1ff320019ddba0029
:1005f000eeff370000000000000000003600f800a9
:10060000809fbe00829fbe00849fbe00869fbe006a
:100610000000fa00e0868000808588004085800028
:1006200000868800f1858000f0702200808f5000e5
:1006300006003e008087800080878800f08580006b
:100640000000e800f085880004003700be30ef00ad
:10065000808780000000e90080878800200b21004f
:10066000c91007000000e0000c003400200b21003e
:100670001000780040858800200b210010009000b9
:1006800050858800200b21002000900060858800a4
:10069000200b21003000900070858800408680008b
:1006a0000000e00006003a0080858000d0858800c8
:1006b00080878000e0858800a00b2100ee100700f5
:1006c0000068a9000080fa004f03be004f02be0080
:1006d0004f01be004f00be003600f900004006008a
:1006e000809fbe000200fa0031118000010f7800e7
:1006f00010118000660060000000e000030032007e
:100700002222a9002242a9001a003700a0868000f8
:10071000e90f500017003c00f00f20009e00780009
:10072000808f500007003600608780009e007800b0
:10073000814078000148780010002000a0868800e1
:100740000c003700a08680000000e00009003400a3
:1007500061878000a0868000008040009e007800b5
:100760008140780001487800a08680000000e80001
:10077000a08688000168a9000080fa004f00be0032
:1007800000400600809fbe000200fa00090037000a
:10079000418780005087800000804000104f780023
:1007a000508780000000e800508788001e80fb0012
:1007b0002011880050878000e50f500005003c00a4
:1007c0001111800000202000008060000000e00087
:1007d000efff320050878000e50f50000100340029
:1007e000c830ef000188a9000080fa004f00be0069
:1007f000004006003600f800809fbe00829fbe00c9
:10080000849fbe00869fbe00889fbe008a9fbe0058
:100810008c9fbe000800fa0062218000f2808800f0
:100820008220800012808800722080000280880070
:10083000922080002280880082208000e28188004f
:1008400012808000a2808800f280800002818800ef
:10085000228080004311dd004280880052808000a9
:10086000e30f510009003c0002808000c291de00cd
:100870007280800002814100728088005280800076
:100880000201e80052808800070037005280800093
:10089000e40f510004003a000a30ef00728080003b
:1008a000628088000e30ef006280800073ff2000bd
:1008b0000391b900441add004c10de000000720004
:1008c000cc98de004103070032082400b325240041
:1008d000bd0207001c03070000007800b0828800fa
:1008e000003a8000640060000000e00027003a0049
:1008f000003a8000700060000000e00023003a0031
:10090000013a800000102000008060000000e0003c
:100910001e003a00013a80000000240000806000c0
:100920000000e00019003a00013a80000020200099
:10093000008060000000e00014003a00013a8000ee
:1009400000802000008060000000e0000f003a00fe
:10095000013a800000022000008060000000e000fa
:100960000a003a00013a8000000028000080600080
:100970000000e00005003a00013a80000004200079
:10098000008060000000e00003003200254ea80057
:100990006d50a800020037006d50a900254ea90037
:1009a0006cd0bf00684060000004e000030032002b
:1009b000144ea800048ea80002003700144ea900af
:1009c000048ea900117180000000220000806000e8
:1009d0000000e000040032006d30a800144ea800b2
:1009e000048ea800010037006d30a900e18180006d
:1009f000c0da2000808f5000080034006cd0bf00a7
:100a0000684060000004e00004003a006c70a80038
:100a1000f08180000000e800f08188006cd0bf0009
:100a2000684060000004e00005003200e1818000c1
:100a300070892000808f500001003c006c70a9007c
:100a4000f0818000e20f5000010034006c70a800bb
:100a5000f1808000907f2000808f500005003400de
:100a6000f180800070802f0000804000108188009d
:100a700004003700f0808000917f2000008050004b
:100a800010818800d1818000c0072000808f500035
:100a90000d003c00d08180000000e800d08188007b
:100aa0001181800070072000808f50000800340002
:100ab0006dd0bf00614060000004e00004003a0017
:100ac0006d10a800020037003a30ef006d10a90049
:100ad000108180004480de003081880060818000c9
:100ae000e30f500004003c00608180000000e8003b
:100af000608188002400370021818000700c200074
:100b0000808f500008003c004181800030818000cf
:100b10000080400040818800208180000000e800c3
:100b20002081880017003700820c2000030020007d
:100b30002207980033079800820020002e029000c0
:100b4000be02900011000900422ad800808188006e
:100b500082818000408180006102b80024079800f3
:100b6000350798002e029000be0290001100090087
:100b7000422ad80000004000708188002830ef0031
:100b80002430ef002c30ef00708180000080d10015
:100b900090818800708180006101b900220798006f
:100ba00033079800020120002e029000be02900040
:100bb00011000900422ad800a081880070818000bd
:100bc0006101b9002207980033079800a2002000b5
:100bd0002e029000be02900011000900422ad800a7
:100be000b081880071818000908180008080400009
:100bf000a0818000008040005081880071818000c9
:100c0000b081800000804000c08188001180800099
:100c100000fa2000808f50000300360000fa200008
:100c2000108088000200370010808000108088004b
:100c3000e180800030062000808f500004003c00de
:100c4000e08080000000e800e08088002800370095
:100c50001ad0bf00e94f500009003c00b08080006e
:100c6000800078001080800000804000b080880004
:100c70001ad0bf000040e8001af0b7001b00370090
:100c8000b08080006101b900220798003307980006
:100c9000a20020002e029000be0290001100090068
:100ca000422ad800c080880050818000213327006c
:100cb0000180b9004109dd00cf02de00850271002c
:100cc000050f7800cf89de00130798001e02780018
:100cd0009e0290000400420085804a0000007800d7
:100ce000908788001630ef001a70ef001c30ef007c
:100cf00071818000800c2000808f50000200340041
:100d00006c10a800050037007181800030062000bb
:100d1000808f500001003c006c10a900c180800051
:100d200090878000808f5000020034006cb0a800d3
:100d300005003700c180800090878000808f5000c0
:100d400001003d006cb0a9006cd0bf0061406000a4
:100d50000004e0000a003200f1828000f052270017
:100d6000808f500004003c00f08280000000e8000a
:100d7000f0828800040037006cd0a8000200370021
:100d80005e30ef006cd0a900eed0bf00e14f500004
:100d90000e003a00662cef00a62cef0021828000a6
:100da000701a2600808f500004003c0020828000d2
:100db0000000e800208288002d003700ee70ef0070
:100dc0004430ef00242ea9002900370091718000e3
:100dd00000102000008060000000e00010003a00d9
:100de0004230ef006dd0bf00684060000004e000ba
:100df00003003a00008280000000e80000828800c2
:100e000001828000803e2000808f50001800340056
:100e10006d70a8004030ef00046ea8001400370089
:100e20009171800000102000008060000000e00050
:100e30000f0032004030ef006dd0bf00684060000e
:100e40000004e0000a003200108280000000e80088
:100e50001082880011828000803e2000808f500028
:100e6000030034004230ef006d70a900046ea90049
:100e7000b182800040df2000808f500003003400ea
:100e80006c90a800048ea800020037006c90a900a6
:100e9000048ea9006dd0bf00624060000004e00035
:100ea0002200320031838000703e2000808f50008d
:100eb0000e003c0041838000900f2000808f500086
:100ec00005003c00408380000000e800408388006b
:100ed000048ea800150037006830ef0030838000d2
:100ee0000000e80030838800100037005083800045
:100ef000e10f500006003c006cf0a8005083800019
:100f00000000e80050838800048ea9000700370025
:100f100050838000e10f5000040034006cf0a90001
:100f20006c50a800048ea800044ea900c106210040
:100f30009140780000c8b30000c060000004e000e9
:100f40001300320000838000e10f500005003c00d8
:100f5000008380000000e8000083880035cea800f0
:100f60000b00370035cea90011718000000022006f
:100f7000008060000000e00005003a006630ef00ed
:100f8000144ea9006030ef006cf0a900048ea90097
:100f90006cd0bf00624060000004e00013003a0023
:100fa00020838000e40f50000d003c00118380007e
:100fb000f0702200808f500004003c0010838000fd
:100fc0000000e800108388000800370020838000bc
:100fd0000000e800208388006230ef000300370043
:100fe0006c30a800346ea9006430ef006dd0bf00f3
:100ff000644060000004e000dc003a006cd0bf00f8
:101000000044b2000004e000d80032006cd0bf0001
:10101000644060000004e000d4003a006cd0bf00df
:10102000684060000004e000d0003a006dd0bf00ce
:10103000684060000004e000cc00320011718000c4
:1010400000002200008060000000e000c7003a00bd
:101050006dd0bf00624060000004e000c3003a00b1
:101060006dd0bf00684060000004e000bf003200a7
:101070006cd0bf00704060000004e000bb003a008c
:10108000044ea80031828000701a2600808f500024
:1010900004003c00308280000000e80030828800bc
:1010a000bb003700e6d0bf000000fb00e10f50009e
:1010b0009c003200e20f5000030032000000e0000c
:1010c0000c0032009800370091828000503e2100d1
:1010d000808f500004003c00908280000000e800f7
:1010e0009082880090003700908280009082880073
:1010f0008d003700e0828000ea0f50003a00340093
:101100005c30ef0000808000a0828800c0d5200005
:10111000110220000180b900c10add004f06de0087
:101120000c867200cf8ede000c007800c082880032
:1011300080ac2000410a20000180b9004109dd0097
:101140004f05de000a057100cf8dde004358dd003b
:10115000cd50de00810070004350dd0000007800bb
:10116000d0828800a1828000c0d52000808f5000ee
:101170000900340081808000d0828000008050000f
:1011800080808800808080000000e0001b003d001f
:101190001030ef0019003700c0828000c1d5200058
:1011a00080805000a0828000808f50000b003400af
:1011b00081808000d0828000008040008080880094
:1011c0008180800080912700808f50000b003400c8
:1011d0008091270080808800080037008080800090
:1011e0008080880005003700808080008080880033
:1011f000e08280000000e800e082880091808000aa
:10120000f07c2000808f500014003c004082800061
:10121000630040004082880040828000cf80de0072
:10122000ea0007001ac0b30032332300135424002d
:10123000c30007000000e00001003c000045eb0097
:101240000a04e0000200320030c120004082880021
:10125000908080000000e80090808800208080005e
:101260004300dd0040808800408280004300dd00b4
:10127000508288008180800050828000808f5000e2
:1012800002003400508280008080880081808000cd
:1012900050828000808f500002003d0080808000de
:1012a00080808800904d2200210520000180b90037
:1012b000c109dd004f04de0008847100cf8cde0020
:1012c0000800780070828800418080008080800063
:1012d000808f500005003400918280007082800071
:1012e00000805000908288000f00370081808000cd
:1012f000808280008080500040808000808f50007d
:1013000005003400918280007082800000804000df
:1013100090828800040037009082800090828800cc
:10132000010037000000000091828000a01222001e
:10133000808f500002003400a012220090828800aa
:1013400091828000e03a2000808f500002003c0033
:10135000f03a2000908288009082800030638800fc
:10136000908280003065880009003700662cef000d
:10137000a62cef005230ef004830ef001230ef00a3
:101380004630ef005c30ef001030ef00044ea90053
:101390000e28a9000080fa004f06be004f05be00cf
:1013a0004f04be004f03be004f02be004f01be00ff
:1013b0004f00be003600f900004006000040da0091
:1013c0000000fe000000050003f0a200889fbe00a0
:1013d0008a9fbe008c1f7800ba000700c10033004e
:1013e0006450e1004f0032006420e10052003200fe
:1013f00003826c0007003b000905d0000306d00003
:10140000820f54000c065d00020039000200320019
:1014100089017800030678008582550004003d00ac
:101420000003fd008103fd008502ea008b85420078
:10143000840f720002003b0060001000e080180082
:101440006011b8000005eb007a28e1000a003900bd
:1014500006007800c75ddd00f707b20087807500e1
:101460002d003700828171000a017800610560005b
:101470008180d1000080d3008502e900f9ff3b00a4
:10148000060440008784480002003b00600414000a
:10149000e0841c000988a300070032008a817100e3
:1014a00082817100610164008904d1000884d30045
:1014b0008b05e800170037000978a30013003a00f5
:1014c0000b00e000130034008b05e9000804440021
:1014d00089844c000a4474000978a3000d003a0086
:1014e0000b00e000070034008b05e900080444000d
:1014f00089844c0001003a000b0020000978a30009
:10150000f7ff32000001eb0002003700828171001a
:101510000a017800300007000cf0a70001f0a000dd
:10152000790037006420e10002003a00838f6c00ec
:10153000790033000801be000200be0072003700cf
:10154000f4ff2f00770037000001be0048000700bd
:101550000470a70003f0a1006509b1001600320075
:101560000d0035006828e10006003500f0ff2f006f
:10157000f1ff27000300e00013003b0001002800fa
:101580000000050000004000818048008502e9005d
:10159000fcff3a0008003700f88f420002003c00d0
:1015a0008000eb00000005008100d1000080d30026
:1015b0008502e800fcff3a000300e00002003b0067
:1015c00060001000e0801800000006004f89de0077
:1015d000820178006e003700810020006180550094
:1015e0000b003d000b00200061fe2f000100e10018
:1015f0001d00340082817100610164008904d10002
:101600000884d3000000e800faff3a0071002000cf
:1016100061006400030070000200600009003200f5
:1016200061044400e0844c000988a50005003200f4
:101630008b05e8006808e10002003a008904d10047
:101640000884d300f20f20000258e10005003d009d
:10165000c75ddd00f907b2008980750008007800d9
:10166000000006000bf827008b0078000000050042
:10167000c70ade00f107b200f50fb2000800320021
:10168000e1cf4200020032000170a00024000500fa
:10169000810f7000010032000408050044000500bd
:1016a000810f700002003a00140005008502e90075
:1016b0000000400081c04800fcff3b000170a0001a
:1016c000240005000004be00e9ff07000003be007f
:1016d0000405be000200be00e5ff0700844f750050
:1016e000000006000200be006450e1000500360064
:1016f0006420e100020036000968a30001003a00fe
:101700000800be000160a0004f0678004f05be0033
:101710004f04be0000000600f0ff2f00f1ff27007d
:10172000f9ff3700889fbe008a9fbe00841f7800a3
:10173000e4ff07004f00780011003300f0ff2f0096
:10174000838f6c0006003b00040565000a00a700bb
:101750000800370009f0a60010002000080037003c
:10176000820f5400838f5c000300390010002000ba
:1017700001003e000000200009f0a7000000ea0080
:101780004f05be004f04be000000e0000000060050
:10179000881f7800030478000300e00007003d0084
:1017a00060001000e080180060011900e08119005d
:1017b00002003b0001f02d00030037000400070089
:1017c00008f0a70001f0a0004f0478000000060018
:1017d000889fbe008a9fbe000082700004027100d4
:1017e00004827100260032000004be000200be0028
:1017f0006011b8006b092000950220000182cf0023
:101800000a0039000541b1000082cf00070039000d
:101810000541b1000982cf00040039000541b10043
:101820000882cf00010039000541b1000542520095
:10183000120032000a003b008281710061016400e5
:101840008100d1000080d3008984d3000884d300b4
:101850008b05e8000442e800f7ff3a000700370074
:101860000804440089844c0000004800818048003e
:101870008b05e9000442e900f9ff3a0056ff070032
:101880004f05be004f04be00000006008001780036
:1018900002003700b15978000201e9000200e000bf
:1018a000fcff3a00000006008001780002003700cb
:1018b000815978000201e9000200e000fcff3a00d3
:1018c00000000600881f78000204780008017800f4
:1018d000eeff0700080040004f04780000000600fb
:1018e0000000fa00881f780000047800ea815700a1
:1018f0003fb997008800780020c620000700070045
:101900000000e0000200350000044400004ceb0041
:101910004f0478000080fa00000006006200fa0020
:10192000889fbe008a1f7800000578008104780037
:10193000020478008300780080f92f000f00400037
:10194000cf0307009a979f00a9979f000000eb0024
:10195000b09f9f001885fb008a04fb000a05ea007f
:101960004f55de0050022000808f54000d003200e1
:10197000e10f55000b003a000a017800880078005a
:101980002f9097009f91970003000100a0979f0060
:101990000000e0008e0032003f9897000000e80051
:1019a000b09f9f000a04440050022000808f540022
:1019b000040032000900e000e6ff3a003f9897007b
:1019c000840037000000eb00909f9f00809f9f00e5
:1019d000f0979f00e0979f00d0979f00c0979f00cf
:1019e00007003700c1122100010050000000400034
:1019f00001122100808040005f9897001100700064
:101a0000d09f9f008804780009047800384578004a
:101a10008a00fb00c0122100940107000000e000d2
:101a2000f0ff3a00a1c2b300814f55000e003a000a
:101a3000cf8897000180e900c08f9f0010007800d8
:101a4000c09f9f000000e00005003d000000ea008c
:101a5000c09f9f005f9897000020a000d09f9f002c
:101a60000904e8000f003700c09f9f000000eb0052
:101a700005003700f2ff2700820f500002003200fd
:101a8000ea00b9000080400009047800880478006a
:101a9000b900fb000103b100e98f5000f5ff3600eb
:101aa000c09f9f00e0c2b300984f100002003200b8
:101ab0000080eb0019003700a0c2b300d84f10001f
:101ac00007003a00cf8897000180e900c08f9f008f
:101ad00010007800a09f9f000804e8001000370065
:101ae0000000eb00a09f9f008800780005003700f1
:101af000f3ff2700830f500002003200ea00b90014
:101b00000000410001047800880078003101fb00ea
:101b10000203b100e90f5100f5ff3600a09f9f00be
:101b2000984478008900fb00801121004f010700d4
:101b30000000e000020032000804e8000100370065
:101b40008044eb00c97f9f0080c6b30080cf540063
:101b500004003a0098cf14000a003a006640500092
:101b600006003700c0c6b30080cf540005003a001d
:101b700098cf140003003a0065404000c07f9f00ea
:101b80000804e8001801fb00e3fb2f008f814100ef
:101b900081f92f008f804000a0f92f000f00400036
:101ba000100007000000e00009003a00e1fb2f00f0
:101bb0008f804000a0f92f000f0040007402070042
:101bc0000000e000020035000804e80061ff370073
:101bd0000080eb004f0578004f04be000080fa0043
:101be00000000600889fbe008a9fbe00e4c6b300c6
:101bf000844f5100ce00320010003c006b42520076
:101c0000844f51001800320005003c0054c2b3005c
:101c1000844f51000601320084c5b3000f00370025
:101c200044c6b300844f51001500320065424200a3
:101c3000844f510001013a001100370004c7b3007e
:101c4000844f5100ed0032005f00350065424200d4
:101c5000844f51005c00320063424200844f5100c7
:101c6000f6003a00580037001181e9008208780038
:101c7000f00090008181410092497800f500370022
:101c800020629000c5c6b300854f520008003a009c
:101c900091027800648252008408780094029000d7
:101ca000140278004fabde00860378001600370080
:101cb00015c7b300854f520003003a0011047800a5
:101cc0006802540005003700a5c6b300854f5200d6
:101cd00008003a0091047800688254008408780073
:101ce0009402900024039000b40390001402780042
:101cf000050037001182e90084087800140278009a
:101d0000cfa2de00612bb9000498be000690be0091
:101d1000a060900088c6b30088cf50000d0032004c
:101d200028c6b30088cf500004003a000402fb002c
:101d3000cfa2de00612bb9000800370048c7b3000e
:101d400088cf5000030032006644440088cf500022
:101d500004003a00cfa2de00612bb9000498be0057
:101d60000690be00100278009002900020039000c0
:101d7000b0039000f0009000e00f5200e08f5a0096
:101d8000e00f5b00e08f5b0003003d00018241003b
:101d9000d5c2b3000a003700001290000418a30057
:101da0000300320001824100b5c2b30004003700d5
:101db0000408a300590032000182410005c2b300ab
:101dc000054a78005300370020629000c5c6b30072
:101dd000854f520009003a00110578006402550051
:101de0008408780014047800940490006055b800ca
:101df0000802be000a03be001600370015c7b30074
:101e0000854f520003003a00910478006882540024
:101e100005003700a5c6b300854f520008003a0000
:101e2000110578006802550084087800940290003b
:101e300024039000b40390001402780005003700da
:101e40001182e90084087800140278008002eb0017
:101e50006033b8000498be000690be00a0609000f9
:101e600088c6b30088cf50000d00320028c6b300ea
:101e700088cf500004003a000482fb008002eb008f
:101e80006033b8000800370048c7b30088cf50005f
:101e9000030032006644440088cf500004003a003a
:101ea0008002eb006033b8000498be000690be00cc
:101eb000801090000138a300180032001002780052
:101ec0009002900020039000b0039000e00f5200b9
:101ed000e08f5a00e00f5b00e08f5b000f003200e4
:101ee00081c7b300814f51000300320081c5b300a8
:101ef000814f510009003a00f0009000018241003a
:101f000005c3b300054a78008100e8000182410062
:101f1000024a78008100e80071009800f00090000b
:101f20008181410063009800824078003e003700c4
:101f3000a0619000c4c6b3001181e90084cf5100b4
:101f4000220032000a003c006442520084cf51005b
:101f50002500320004c2e80084cf51001300320093
:101f60006842520084cf51001e003a000a00370038
:101f700044c7b30084cf51001b00320066424200c8
:101f800084cf5100180032006942520084cf5100c2
:101f900014003a00050037008208780092007800ab
:101fa00040589000804878002c0037008208780064
:101fb00092007800600a9000cfa2de00612bb90089
:101fc0008498be008690be00240037008208780006
:101fd0009200780060099000cf91de008288be00f8
:101fe0001e0037001181e900820878009200780015
:101ff0006008900080087800180037001181e9001f
:102000008208780012027800cfa2de00612bb900ae
:102010000498be000690be00f0009000818141004f
:102020006300980081c7b3001c0007000b00370055
:10203000f00090008181410005003700f000900021
:10204000818141000204e00001003a0052c2b30065
:10205000824978008100e800710098000000eb00e0
:102060004f05be004f04be0000000600020037000e
:102070000304e0000600320000017800020078004e
:10208000b041780081cf5100f9ff3a0001003700dc
:102090000001eb000200780000000600fc8747000a
:1020a000889fbe008a9fbe008c9fbe008e1f780056
:1020b0000006780080c5b30080cf50000a003200cf
:1020c0007740400080cf50000a0032006940400055
:1020d00080cf50000b0032007010210080bf9f00a5
:1020e000ae0020000a003700620f210082bf9f006f
:1020f000060037007310210083bf9f008e00200070
:10210000030037007410210084bf9f000e012000df
:102110001c0278009c0290002c039000bc039000ed
:102120000605be000404be0040c6b30080cf5000c8
:10213000030032006540400080cf50000b003a00a1
:10214000e00f5200e08f5a00e00f5b00e08f5b0071
:1021500006003d006000b8006011b80004045000a3
:10216000858458000605590087855900e80f5700f7
:102170000400320040002000f00f57003c003a00fd
:102180000100370030002000e00f5400e08f5c00b9
:10219000e00f5d00e08f5d0004003a00dc08900075
:1021a0008d0120000100e000070032008e00e900f0
:1021b000888060008fba970081804200914078004b
:1021c000f1ef9f007d012000800078008100e90090
:1021d000050033008b05d1000a85d3008984d30024
:1021e0000884d300f9ff3700089ebe000a96be009f
:1021f000130037008d06e9008e00e900848060003e
:102200000fb99700810041001141780083fd2f0034
:102210008d81410082f77900800178008301e90017
:10222000050033008783d1000683d3008582d30065
:102230000482d300f9ff3700049ebe000696be005c
:102240001c0278009c0290002c039000bc039000bc
:10225000e00f5200e08f5a00e00f5b00e08f5b0060
:10226000930034000d00e000e2ff3c0090003700d6
:102270002c60900081c6b300814f50000b003200eb
:1022800006003c000004e00008003200e6c05000f8
:10229000814f500052003a0004003700c1c6b3001d
:1022a000814f50004e003a00230037000800e00044
:1022b00004003a005c0890008d0120000000e0005e
:1022c00007003200110009000e84d8000fba9700f1
:1022d0000100420010407800f0ef9f007d012000d7
:1022e000110009000e84d8000b003700110009000e
:1022f0000e04d8008d06e9008e81b9000204540056
:102300008fb89700088440009841780082fd2f0024
:102310000d01410083777900000478000800e00097
:10232000020032000d00e000f0ff3c00cfc4de00f0
:10233000614db90027003700e00f5400e08f5c00ca
:1023400004003a005c0890008d0120000000e000cd
:10235000080032006171b9000800be006901070081
:102360000fba97008000420091407800f1ef9f0083
:102370007d0120006171b9000800be005101070015
:102380000c0037006171b9000800be003e01070073
:102390008d06e90080f1b900020454008fba97005d
:1023a000088442009841780082fd2f000d01410011
:1023b000837779000004be00e00f5000e08f5800e2
:1023c000020032000d00e000eeff3c004fcdde00c9
:1023d0008a057800089ebe000a96be0034003700c9
:1023e000e00f5400e08f5c00e00f5d00e08f5d00c7
:1023f00004003a005c0890008d0120000000e0001d
:102400000a0032006172b900612bb9000800be00f9
:102410000a01be00e00107000fba970080004200e9
:1024200091407800f1ef9f007d0120006172b900ba
:10243000612bb9000800be000a01be00cf010700f1
:102440000e0037006172b900612bb9000800be00b0
:102450000a01be00d40107008d06e90080f2b90030
:10246000040454008fba9700088442009842780010
:1024700084fd2f000d02420085777a00009ebe0089
:102480000296be001c0478009c0490002c0590006d
:10249000bc059000e00f5400e08f5c00e00f5d0091
:1024a000e08f5d00020034000d00e000e5ff3c001d
:1024b000e80f570010003a000c1090000038a300fd
:1024c0000d003200f78f560006003e0080fd2f0001
:1024d0000d004000ef40780000c3b30080cf5000f3
:1024e0000500320002c3b30071fd2f008d80400053
:1024f0008d06e90082f7780078811600120e9800a8
:102500006c00900083fd2f008f8141008d80410081
:10251000defc07001c089000dc089000810f5000d2
:1025200006003d0000805000000e98000c10900046
:102530000040a100001698000f0037000100e000e5
:102540000d003d008c109000f4806000f08f500072
:1025500009003a007c099000fc00900081005100c5
:102560000c09900082805000008050004240a90079
:1025700001003400000e98004f0778004f06be009f
:102580004f05be004f04be00cf01b10000000600a1
:102590000400fa00889fbe008a9fbe008c1f78004e
:1025a0000004780001067800f80d90007800900093
:1025b0008085550008089000808555001808900017
:1025c00080855500280890008085550038089000c7
:1025d0008085550048089000808555000002220043
:1025e00090bf9f0000032300a0bf9f000810900031
:1025f0000028a30015003a000b00e000130034008f
:102600000b0578008a047800e20f550001003600bf
:1026100029002000c801900009017800ee805700d1
:102620005800900003000100500498000000e000f2
:102630008c0032006808900009004000600c98008f
:10264000090555004240a900eeff3c0078019000ca
:102650000200e0000c003400c80190008c007800fb
:102660005800900003000100500498008080eb00a7
:102670000000e0007c003200e80890007800900044
:1026800000804000600c9800880c90000900e00079
:102690001100340009057800e28f54000100360073
:1026a0002a002000c80190000a017800ec80570041
:1026b0005800900003000100500498000000e00062
:1026c00068003200680890000a004000600c980022
:1026d0008a845400edff3700180990000200e000e2
:1026e0000c003400c8019000e800900058009000f1
:1026f00003000100500498008080eb000000e0001f
:1027000059003200e808900018089000008040004e
:10271000600c9800a80c90000900e0001100340043
:1027200009057800e28f5400010036002a002000dd
:10273000c80190000a017800ec8057005800900012
:1027400003000100500498000000e0004500320042
:10275000680890000a004000600c98008a845400c9
:10276000edff3700380990000200e0000e00340051
:10277000e80090001808900080804000c801900098
:102780005800900003000100500498008080eb0086
:102790000000e00034003200e808900038089000a3
:1027a00000804000600c9800c80c90000900e00018
:1027b0001100340009057800e28f54000100360052
:1027c0002a002000c80190000a017800ec80570020
:1027d0005800900003000100500498000000e00041
:1027e00020003200680890000a004000600c980049
:1027f0008a845400edff3700081090008000eb0041
:102800000028a300180032000b00e000160034007e
:102810008b04780009057800e28f5400010036002f
:102820002a002000c80190000a017800ee805700bd
:102830005800900003000100500498000000e000e0
:1028400008003200680890000a004000600c980000
:102850008a8454004240a900eeff3c008000eb0057
:10286000010037008080eb00010078004f067800ff
:102870004f05be004f04be000080fa0000000600b5
:102880000108780000000600839f68000100e00056
:1028900002003d0060001000e08018000300e0002e
:1028a00002003d0060011100e081190005000700f1
:1028b0004f00e00002003b0060001000e0801800c4
:1028c000000006006022b800060220000000d000d0
:1028d0008180d2000482d2008582d2000000a00054
:1028e0000202520083825a000300310002024200b9
:1028f00083824a000000a1000603e900f3ff3a00ca
:1029000000000600efff07000400be000000060004
:10291000889fbe008a9fbe0030044200b0844a00f7
:1029200030054b0090854b006000b1000898be0058
:102930000a90be000440e10005c8e10006d0e100b5
:1029400007d8e10002003100680040001008e800ec
:102950004f05be004f04be0000000600889fbe0069
:102960008a9fbe001004780090049000200590001b
:10297000b00590000418540005985c0006185d002e
:1029800007985d00110020000440e10005c8e10047
:1029900006d0e10007d8e100010039008000eb001b
:1029a000108810004f05be004f04be000000060056
:1029b0001200fa00889fbe008a9fbe008c9fbe0056
:1029c000e0b79f00f1b79f0082bf9f0093bf9f00b9
:1029d0000605be000404be000000eb00d0b79f0057
:1029e000c0b79f00b0b79f00a0b79f0090b79f00ef
:1029f0000006eb005fb19700cfb097008201410065
:102a00003fb097000200e00004003d0037000700df
:102a10007e805700beff0700030037003300070029
:102a20007e805700cdff0700dfb697000d00e00065
:102a30000c0035006fb29700ffb297000fbb9700f4
:102a40009fbb970010002000010020006011b8001b
:102a5000000272008182720002037300838373009c
:102a60001b0007000c06e80001042000810f56003f
:102a7000e0ff3a000d00e00004003d000802be0047
:102a80000a03be007e805700a1ff07005fa89700e1
:102a90000000e00005003a001fb29700afb29700b7
:102aa0003fb39700cfb39700090007006fb09700be
:102ab000ffb097000fb997009fb997004f06be006f
:102ac0004f05be004f04be000080fa000000060063
:102ad0000100070000000600a4b79f00b5b79f00e3
:102ae000c6b79f00d7b79f00000006004f09de0061
:102af00082817100b3b79f004f01de0081804000ea
:102b000082807000a1b79f008fb097004f09de0050
:102b1000000040000200700090b79f007fa897005f
:102b20004f01de00818040008280700081b79f00ed
:102b30000d0007004f3ade00000040000400700066
:102b4000f0af9f00080007000402420085824a009f
:102b500006034b0087834b00dfff07000802be001f
:102b60000a03be00000006002fb29700bfb2970014
:102b70004fb39700dfb3970000000600881f78006e
:102b800018002000881f780089ff07008f87e90060
:102b90004f04780000000600801feb0084ff070050
:102ba0008f87e90000000600889fbe008a9fbe0054
:102bb000e00f5000e08f5800e00f5900e08f5900ff
:102bc0000c003d006044b8006055b800000054009f
:102bd00081805c0002015d0083815d00180020009f
:102be0001500070008003d00180007000004eb0076
:102bf000050037000004eb000f00070002003d0055
:102c00001200070018002000dcff07000800e000a9
:102c1000060032006022b8006033b80000005200a5
:102c200081805a0002015b0083815b004f05be007a
:102c30004f04be0000000600e00f5200e08f5a0073
:102c4000e00f5b00e08f5b00000006006044b8000e
:102c50006055b8000402540085825c0006035d00e4
:102c600087835d0000000600889fbe008a9fbe002b
:102c70008c1f7800e00f5000e08f5800e00f5900e3
:102c8000e08f59000d003d006044b8006055b80069
:102c90000000540081805c0002015d0083815d00c2
:102ca0001c0020000820e10009a8e1000ab0e100b2
:102cb0000bb8e1000d003d00080037000006eb00f6
:102cc000e00f5200e08f5a00e00f5b00e08f5b00e6
:102cd00006003d006044b8006055b800040254008e
:102ce00085825c0006035d0087835d00aaff070004
:102cf0000c00e000060032006022b8006033b8002b
:102d00000000520081805a0002015b0083815b0059
:102d10004f0678004f05be004f04be0000000600bd
:020000040000fa
:102d200000000000c1c0000081c10000400100009f
:102d300001c30000c00300008002000041c2000087
:102d400001c60000c00600008007000041c7000067
:102d500000050000c1c5000081c40000400400005f
:102d600001cc0000c00c0000800d000041cd00002f
:102d7000000f0000c1cf000081ce0000400e000017
:102d8000000a0000c1ca000081cb0000400b000017
:102d900001c90000c00900008008000041c800000f
:102da00001d80000c01800008019000041d90000bf
:102db000001b0000c1db000081da0000401a0000a7
:102dc000001e0000c1de000081df0000401f000087
:102dd00001dd0000c01d0000801c000041dc00007f
:102de00000140000c1d4000081d50000401500008f
:102df00001d70000c01700008016000041d6000077
:102e000001d20000c01200008013000041d3000076
:102e100000110000c1d1000081d00000401000006e
:102e200001f00000c03000008031000041f10000de
:102e300000330000c1f3000081f2000040320000c6
:102e400000360000c1f6000081f7000040370000a6
:102e500001f50000c03500008034000041f400009e
:102e6000003c0000c1fc000081fd0000403d00006e
:102e700001ff0000c03f0000803e000041fe000056
:102e800001fa0000c03a0000803b000041fb000056
:102e900000390000c1f9000081f80000403800004e
:102ea00000280000c1e8000081e90000402900007e
:102eb00001eb0000c02b0000802a000041ea000066
:102ec00001ee0000c02e0000802f000041ef000046
:102ed000002d0000c1ed000081ec0000402c00003e
:102ee00001e40000c02400008025000041e500004e
:102ef00000270000c1e7000081e600004026000036
:102f000000220000c1e2000081e300004023000035
:102f100001e10000c02100008020000041e000002d
:102f200001a00000c06000008061000041a100001d
:102f300000630000c1a3000081a200004062000005
:102f400000660000c1a6000081a7000040670000e5
:102f500001a50000c06500008064000041a40000dd
:102f6000006c0000c1ac000081ad0000406d0000ad
:102f700001af0000c06f0000806e000041ae000095
:102f800001aa0000c06a0000806b000041ab000095
:102f900000690000c1a9000081a80000406800008d
:102fa00000780000c1b8000081b90000407900003d
:102fb00001bb0000c07b0000807a000041ba000025
:102fc00001be0000c07e0000807f000041bf000005
:102fd000007d0000c1bd000081bc0000407c0000fd
:102fe00001b40000c07400008075000041b500000d
:102ff00000770000c1b7000081b6000040760000f5
:1030000000720000c1b2000081b3000040730000f4
:1030100001b10000c07100008070000041b00000ec
:1030200000500000c190000081910000405100005c
:1030300001930000c0530000805200004192000044
:1030400001960000c0560000805700004197000024
:1030500000550000c195000081940000405400001c
:10306000019c0000c05c0000805d0000419d0000ec
:10307000005f0000c19f0000819e0000405e0000d4
:10308000005a0000c19a0000819b0000405b0000d4
:1030900001990000c05900008058000041980000cc
:1030a00001880000c04800008049000041890000fc
:1030b000004b0000c18b0000818a0000404a0000e4
:1030c000004e0000c18e0000818f0000404f0000c4
:1030d000018d0000c04d0000804c0000418c0000bc
:1030e00000440000c18400008185000040450000cc
:1030f00001870000c04700008046000041860000b4
:1031000001820000c04200008043000041830000b3
:1031100000410000c18100008180000040400000ab
:1031200020200000204200004154000054450000cf
:1031300052590000204c00004f5700002020000092
:103140000020000020200000202000005741000047
:10315000524e0000494e0000472000002020000091
:1031600020000000534800004f520000542000008f
:10317000434900005243000055490000542000001c
:1031800020200000004200004154000054200000b4
:103190004c4f000057200000564f00004c540000d8
:1031a00041470000450000002020000020200000d2
:1031b0005348000055540000444f0000574e000093
:1031c000202000002020000000200000202000001f
:1031d000204f000056450000522000004c4f0000d8
:1031e00041440000202000002000000020200000ba
:1031f00020200000204200004154000054450000ff
:103200005259000020200000202000002000000073
:1032100020200000204f00005645000052560000bc
:103220004f4c0000544100004745000020200000a2
:103230000043000048410000524700004552000092
:10324000205300004320000046410000554c000080
:1032500054200000004f000056450000522000009e
:10326000544500004d5000004552000041540000fc
:103270005552000045000000202000004459000085
:103280005445000043480000205000004f57000004
:103290004552000020000000434800004152000059
:1032a00047450000522000004f4e00002020000043
:1032b00020200000202000000047000052490000ac
:1032c000442000004f4e0000004900004e56000010
:1032d0004552000054450000522000004f4e0000af
:1032e0002020000020200000200000005354000097
:1032f000414e000044200000425900002020000000
:1033000020200000202000002020000000560000a7
:103310005f4d0000414900004e5300002020000096
:103320002020000020250000642500006425000006
:1033300064560000004300006f6d00006d20000027
:1033400020200000202000002564000025640000eb
:103350002564000056000000565f00004443000052
:103360004c6900006e6b000020200000202000004f
:10337000256400002564000025640000560000005c
:10338000562000004241000054540000202000005c
:10339000202000002025000064250000642e00008d
:1033a0002564000056000000492000004241000052
:1033b00054540000202000002020000020250000a0
:1033c00064250000642e0000256400004100000018
:020000040000fa
:1033d0001400fa0000c8b3001304070042012000e3
:1033e0008000eb000e0078002ff90700120120008a
:1033f000018929000e00780024f907000e007800ea
:103400001004070000ccb3000704070042012000ad
:103410008000eb000e00780023f907001201200065
:10342000118a29000e00780018f907000e007800b4
:10343000040407000080fa00000006001400fa00ef
:1034400000c8b300f8030700420120008000eb0031
:103450000e00780014f9070012012000218b2900ca
:103460000e00780009f907000e007800f503070048
:103470000080fa00000006001400fa0000c8b30043
:10348000e9030700420120008000eb000e007800f5
:1034900005f9070012012000318c29000e00780088
:1034a000faf807000e007800e603070000ccb3002e
:1034b000dd03070012012000418d29000e00780075
:1034c000f2f807000e007800de0307000080fa0023
:1034d000000006001400fa0000c8b300d203070081
:1034e000420120008000eb000e007800eef807009b
:1034f00012012000518e29000e007800e3f8070029
:103500000e007800cf03070000ccb300c60307000d
:1035100012012000418d29000e007800dbf8070021
:103520000e007800c70307000080fa0000000600c4
:103530001400fa0000c8b300bb03070042012000da
:103540008000eb000e007800d7f807002201200071
:10355000618f29000e007800ccf807000e0078007b
:10356000b803070000ccb300af030700120120002e
:10357000819029000e007800c4f807000e00780042
:10358000b00307000080fa00000006001400fa00f3
:1035900000c8b300a4030700420120008000eb0034
:1035a0000e007800c0f80700220120009191290048
:1035b0000e007800b5f807000e007800a1030700a0
:1035c0000080fa00000006001400fa0000c8b300f2
:1035d00095030700420120008000eb000e007800f8
:1035e000b1f8070012012000b19229000e00780006
:1035f000a6f807000e007800920307000080fa008a
:10360000000006001400fa0000c8b300860307009b
:10361000420120008000eb000e007800a2f80700b5
:1036200002012000c19329000e00780097f80700de
:103630000e007800830307000080fa0000000600f7
:103640001400fa0000c8b30077030700420120000d
:103650008000eb000e00780093f8070012012000b4
:10366000c19429000e00780088f807000e00780049
:10367000740307000080fa00000006001400fa003e
:1036800000c8b30068030700420120008000eb007f
:103690000e00780084f8070082002000d1952900f0
:1036a0000e00780079f807000e0078006503070027
:1036b0000080fa00000006001400fa0000c8b30001
:1036c00059030700420120008000eb000e00780043
:1036d00075f8070012012000519629000e007800ad
:1036e0006af807000e007800560307000080fa0011
:1036f000000006001400fa0000c8b3004a030700e7
:10370000420120008000eb000e00780066f8070000
:1037100012012000619729000e0078005bf8070075
:103720000e007800470307000080fa000000060042
:103730001a00fa00400f98000000eb00000f78001c
:103740004e0890000000e000210034001500370012
:10375000ce089000a00020000001780011000900b0
:103760008200d8008000fd00100798001e0078003d
:1037700080004000e0092100008040009e00900091
:10378000010878004e099000706626000090b9008c
:10379000c288de004f90de0000805000400f98008d
:1037a0001e0fe8004e0890000000e000e8ff3c001b
:1037b0001e00780080004000e009210000804000e9
:1037c0008000eb00010878000000eb00000f78009b
:1037d000f0848000708388000085800080838800ea
:1037e000108580009083880020858000a083880059
:1037f00030858000b08388009e30ef00a030ef005d
:10380000a230ef00a430ef00a630ef0070838000fc
:10381000b084880080838000c0848800908380000a
:10382000d084880000ccb300ff020700640047008a
:10383000420120008000eb001bf80700738380002a
:10384000828380009183800064004700831f78009a
:10385000821f7800811f780071982900811f7800ed
:103860001ff80700e887570064004700f5020700cb
:103870000080fa00000006001a00fa00400f9800cd
:103880000000eb00000f78004e0890000000e00000
:103890002300340017003700ce0890007066260021
:1038a0000089b9004299de004f88de000000510017
:1038b000ea00b90000805000100798001e00780050
:1038c00080004000e0092100008040009e00900040
:1038d000010878004e099000706626000090b9003b
:1038e000c288de004f90de0000805000400f98003c
:1038f0001e0fe8004e0890000000e000e6ff3c00cc
:103900001e00780080004000e00921000080400097
:103910008000eb00010878000000eb00000f780049
:10392000f084800070838800008580008083880098
:10393000108580009083880020858000a083880007
:1039400030858000b08388009e30ef00a030ef000b
:10395000a230ef00a430ef00a630ef0070838000ab
:10396000b084880080838000c084880090838000b9
:10397000d084880000ccb300ab020700640047008d
:10398000420120008000eb00c7f70700748380002d
:103990008383800092838000a183800064004700bd
:1039a000841f7800831f7800821f7800811f7800b1
:1039b000b1992900811f7800c9f70700ea875700ed
:1039c000640047009f0207000080fa000000060024
:1039d0001a00fa00400f98000000eb00000f78007a
:1039e0004e0890000000e0001f0032001300370076
:1039f0004e099000d0cc2c000010b8004308de0027
:103a0000ea00b90000005100100798001e0078007d
:103a100080004000e0092100008040009e009000ee
:103a200001087800ce089000d0cc2c000008b80027
:103a30004308de00400f98001e0fe8004e0890007b
:103a40000000e000eaff3a001e007800800040001d
:103a5000e0092100008040008000eb0001087800b0
:103a60000000eb00000f7800f0848000c083880025
:103a700000858000d083880010858000e083880066
:103a800020858000f08388003085800000848800d5
:103a90009e30ef00a030ef00a230ef00a430ef0026
:103aa000a630ef00c0838000b0848800d0838000ff
:103ab000c0848800e0838000d084880000ccb300fc
:103ac0005902070064004700420120008000eb001b
:103ad00075f70700c3838000d2838000e1838000f4
:103ae00064004700831f7800821f7800811f7800e0
:103af000c19a2900811f780079f70700e8875700ed
:103b0000640047004f0207000080fa000000060032
:103b10001a00fa00400f98000000eb00000f780038
:103b20004e0890000000e00019003200130037003a
:103b30004e099000d0cc2c000010b8004308de00e5
:103b4000ea00b90000005100100798001e0078003c
:103b500080004000e0092100008040009e009000ad
:103b600001087800ce089000d0cc2c000008b800e6
:103b70004308de00400f98001e0fe8004e0890003a
:103b80000000e000eaff3a000000eb00000f7800c0
:103b9000f0848000108488000085800020848800e4
:103ba0001085800030848800208580004084880053
:103bb00030858000508488009e30ef00a030ef00f8
:103bc000a230ef00a430ef00a630ef001084800098
:103bd000b084880020848000c08488003084800005
:103be000d084880000ccb3000f02070064004700b7
:103bf000420120008000eb002bf7070013848000b7
:103c0000228480003184800064004700831f780094
:103c1000821f7800811f7800019c2900811f780095
:103c20002ff70700e88757006400470005020700e8
:103c300000c8b300fc0107000080fa000000060085
:103c40001a00fa00400f98000000eb00000f780007
:103c50004e0890000000e0001f0032001300370003
:103c60004e099000d0cc2c000010b8004308de00b4
:103c7000ea00b90000005100100798001e0078000b
:103c800080004000e0092100008040009e0090007c
:103c900001087800ce089000d0cc2c000008b800b5
:103ca0004308de00400f98001e0fe8004e08900009
:103cb0000000e000eaff3a001e00780080004000ab
:103cc000e0092100008040008000eb00010878003e
:103cd0000000eb00000f7800f08480006084880012
:103ce00000858000708488001085800080848800b2
:103cf000208580009084880030858000a084880022
:103d00009e30ef00a030ef00a230ef00a430ef00b3
:103d1000a630ef0060848000b0848800708480004a
:103d2000c084880080848000d084880000ccb300e8
:103d3000bd01070064004700420120008000eb0045
:103d4000d9f607006384800072848000818480003b
:103d500064004700831f7800821f7800811f78006d
:103d6000419d2900811f7800ddf60700e887570094
:103d700064004700b30107000080fa00000006005d
:103d80000000fa00020007000080fa0000000600b0
:103d90000000fa00000ea8000e0ea800002ea800d9
:103da0000e2ea800100ea8001e0ea800212ea8009e
:103db0002f2ea800304ea8003e4ea8002f8ea8003f
:103dc000218ea80051188000f0ff230000806000c1
:103dd00000e0a0005018880051188000f00f2c005f
:103de000008060005018880041188000f0ff21001a
:103df000008060004018880002e3a90021188000bc
:103e000000f82f0000806000201888001118800042
:103e10000006200001007000101888003118800092
:103e200000c02f0000806000f000b3003018880050
:103e30001403a9001423a900b11e800000f82f006c
:103e400000806000b01e8800b11e8000003020009d
:103e500001007000b01e88001003a9001023a90003
:103e600071188000c0ff2f00008060000000a000db
:103e700070188800f11e800000f82f00008060009c
:103e8000f01e8800f11e800000302000010070004c
:103e9000f01e880012c3a90012e3a9007118800067
:103ea000f0fc2f00008060000040a0007018880027
:103eb000d11e800000f82f0000806000d01e880016
:103ec000d11e80000030200001007000d01e88004c
:103ed0001043a9001063a9007118800030ff2f0063
:103ee0000080600070188800111f800000f82f000b
:103ef00000806000101f8800111f8000003020002b
:103f000001007000101f880010c3a90010e3a90071
:103f100071188000f0f32f00008060007018880096
:103f2000330007002003a9000dc8a9002dc8a9006f
:103f30002023a9000de8a9002de8a9002043a9002d
:103f40000e08a9002e08a9002063a8000e28a900c9
:103f50002e28a800c1438000000720000100700047
:103f6000c0438800011c800000fe2f00008060001c
:103f70007000b300001c8800011c8000f00f2e00b0
:103f8000808060000070200001007000001c88002c
:103f9000111c800000fe2f00008060007000b30044
:103fa000101c8800111c8000f00f2e008080600023
:103fb0000070200001007000101c8800811c80002f
:103fc00000fe2f00008060001001b300801c8800fc
:103fd00071448000f0ff280080806000000026000f
:103fe00001007000704488000080fa0000000600a4
:103ff0000000fa001120800000f020000100700095
:104000001020880001e3a80000e4a80000000000e0
:104010000120800000002800008060000000e00017
:10402000fbff32000ae3a8000b24a8000b44a90000
:104030000b04a800000000005120800000002800b0
:10404000008060000000e000fbff32000b24a900ac
:104050000004a800000000000120800000102000e3
:10406000008060000000e000fbff32000a03a800af
:104070000444a9000424a8000404a8000464a900be
:104080000000000021208000000820000080600067
:104090000000e000fbff32000044a8000000000028
:1040a0000120800000402000008060000000e0004f
:1040b000fbff32000a43a8000644a9000624a8001a
:1040c0000604a8000664a90000000000312080005a
:1040d00000082000008060000000e000fbff3200cc
:1040e0000024a80000000000012080000020200023
:1040f000008060000000e000fbff32000a23a800ff
:104100000544a9000524a8000504a8000564a90029
:1041100000000000212080000000280000806000d6
:104120000000e000fbff32000064a8000000000077
:104130000120800000802000008060000000e0007e
:10414000fbff32000a63a8000744a9000724a80067
:104150000704a8000764a9000000000031208000c7
:1041600000002800008060000000e000fbff32003b
:104170000080fa00000006000000fa00146ea8009b
:1041800010c0b300a800070000f82400210120009f
:104190005a03070000c3b300a300070000e4270090
:1041a00051002000550307009700070000a62e00cd
:1041b00001002000510307009300070000a62e0015
:1041c000010020004d0307008f00070000a62e000d
:1041d000010020004903070000c2b300920007005d
:1041e0008900070080c2b3008f00070000c1b30040
:1041f0008d000700f0c0b3008b000700c0c0b30003
:104200008900070060c0b300870007006c30a90078
:10421000346ea8000080fa00000006000200fa00d8
:10422000004f78001e417800410f2100824878003d
:104230001e80fb004700de00004078006140600007
:104240000080fb00610060004b00dd00a271800077
:10425000f17f2f008100610001007000a0718800d3
:104260001e80fb004600de000040780061406000d8
:1042700061406000614060000080fb006100600000
:104280004500dd00a2708000f1fd2f00810061007b
:1042900001007000a07088001e80fb004500de0059
:1042a0000040780061406000614060006140600053
:1042b0000080fb0061006000a2718000e1ff2f0020
:1042c0008100610001007000a07188001e80fb0069
:1042d0004400de0000407800614060006140600002
:1042e000614060000080fb00610060004400dd0070
:1042f00022718000f1fe2f0081006100010070003a
:1043000020718800400007009e4078004000200097
:104310000008dd00f4f0b7009e4078004000200067
:104320000008dd00004f78001e80fb004700de0023
:1043300000407800614060000080fb006100600088
:104340004b00dd00a2718000f17f2f008100610031
:1043500001007000a07188001e80fb004600de0096
:104360000040780061406000614060006140600092
:104370000080fb00610060004500dd00a27080004d
:10438000f1fd2f008100610001007000a070880025
:104390001e80fb004500de000040780061406000a8
:1043a00061406000614060000080fb0061006000cf
:1043b000a2718000e1ff2f00810061000100700008
:1043c000a07188001e80fb004400de0000407800e1
:1043d0006140600061406000614060000080fb005f
:1043e000610060004400dd0022718000f1fe2f00ba
:1043f0008100610001007000207188000200070048
:104400000080fa00000006000000fa0024aea800b8
:104410000065240001002000b802070024aea900b6
:104420000080fa00000006000200fa00004f780049
:1044300034aea9001e40780078ff07000080fa0023
:10444000000006000200fa00000f780034aea80059
:10445000070037001e00780010407800f4f0b70025
:104460001e007800104078006cff07001e0fe80067
:104470001e007800104078000004e000f5ff3a00cc
:104480000080fa00000006000000fa0050c7a800f3
:1044900051a7a800813a8000007020000100700040
:1044a000803a880051e7a80000000000813a8000af
:1044b00000002400008060000000e000fbff3200ec
:1044c00080bb2000010020008c020700612ca900a5
:1044d000610ca90001638000f0f32f0000806000f0
:1044e00000638800606ca900604ca900600ca90002
:1044f00063aca900638ca90011638000f03f2f001a
:104500000080600000b0a00010638800206380007d
:104510003000b3002063880070582000606388007a
:104520007058200050638800a12ca900a10ca9009c
:1045300001658000f0f32f000080600000658800b6
:10454000a06ca900a04ca900a00ca900a3aca900d4
:10455000a38ca90011658000f03f2f00008060004f
:1045600000b0a00010658800206580003000b30016
:104570002065880070582000606588007058200011
:1045800050658800222cef00904d220020608800aa
:104590004006200030638800400620003065880017
:1045a0008038210030628800a163800000fc2f0069
:1045b000008060000010a000a0638800a16380005c
:1045c000f0ff20000080600000c0a000a063880011
:1045d0002060800040638800306380000000d100cc
:1045e00090638800a82cef0065eca900216380008f
:1045f00070f02f000080600020638800216380003d
:10460000f03f28000080600020638800652ca9002e
:10461000650ca900206380003000b300206388008f
:104620001163800030ff2f0000806000106388005d
:1046300000402a00d0638800803e2000e0638800ac
:10464000a5eca9002165800070f02f0000806000bb
:104650002065880021658000f03f28000080600010
:1046600020658800a52ca900a50ca9002065800064
:104670003000b300206588001165800030ff2f00f6
:10468000008060001065880000402a00d065880026
:10469000803e2000e065880063eca90063cca9009f
:1046a000a3eca900a3cca90011638000f0f32f00b4
:1046b0000080600010638800632ca800630ca800d1
:1046c00011658000f0f32f00008060001065880005
:1046d000a32ca800a30ca80001eca80000772100df
:1046e0000100200005020700632ca900630ca9004b
:1046f000a32ca900a30ca90063eca80063cca8001c
:10470000a3eca800a3cca8000000eb000080fa00f6
:10471000000006000400fa00b80107005501070078
:10472000e101070058ff07008801070094fd07001a
:1047300091fe0700e430ef00e670ef00eed0bf001e
:10474000e14f500007003a0010c0b300eef0b70090
:10475000242ea800030037000000000001003700ed
:10476000000000006cd0bf00624060000004e00068
:104770000100320080fe070001868000004020001a
:10478000008060000000e0000100320010fb070024
:104790000186800000102000008060000000e00022
:1047a0000100320034fb07000086800070006000ca
:1047b0000000e0000100320046fb07006cd0bf00a3
:1047c000704060000004e0000100320058fb070068
:1047d0006cd0bf00684060000004e00001003200bf
:1047e00079fb07006cd0bf00644060000004e0006b
:1047f0000100320065fb07006cd0bf00684060001c
:104800000004e000010032006ffb07006cd0bf0025
:10481000644060000004e000cfff3a0079fb07002d
:104820000070280031392000b40107006cd0bf00af
:10483000614060000004e0001a00320091718000c5
:1048400000102000008060000000e00015003a0029
:104850007bfb0700b0828000a10020000100b800af
:104860000000780000878800008780006101b800a0
:10487000028fbe00c20420001e0278009e0290003b
:104880001100090042aad800c0868800c0868000b6
:104890009ffc0700007028003139200097010700b5
:1048a000380037006cd0bf00614060000004e000b9
:1048b0001a003a0091718000001020000080600012
:1048c0000000e00015003a007bfb0700b08280008a
:1048d000a10020000100b8000000780000878800d7
:1048e000008780006101b800028fbe00c204200072
:1048f0001e0278009e0290001100090042aad80012
:10490000c0868800c086800081fc070000702800f7
:1049100031392000790107001a00370091718000b9
:1049200000102000008060000000e0008cff3200da
:1049300070fb0700b0828000a10020000100b800d9
:104940000000780000878800008780006101b800bf
:10495000028fbe00c20420001e0278009e0290005a
:104960001100090042aad800c0868800c0868000d5
:1049700067fc070000702800313920005f01070044
:1049800078ff370077ff37000600fa00200798000d
:10499000a0868000e90f500002003c000000eb0000
:1049a000330037000080eb00100798000000eb0098
:1049b000000f7800120037001e009000c800de00d3
:1049c0001e019000f00f200000016100638780004d
:1049d0001e00780000804100104078000080fb003d
:1049e000000069000001400000692900000041004a
:1049f0001000780000806800100798001e0fe80083
:104a00001e007800e90f5000ebff34001e009000fc
:104a10000000e00003003200d430ef000080eb0023
:104a2000130037000000eb00000f78000b00370088
:104a30001e00780000004000ae0090008080400022
:104a40001e00780000014000a00c21000000410081
:104a500010007800800878001e0fe8001e00780023
:104a6000e30f5000f2ff3400d430ef00400020008c
:104a70000080fa00000006000a00fa0040079800d3
:104a8000408680000000e000020032000000eb00e1
:104a9000370037000188a9000080eb0040868800bd
:104aa000ce009000210798000080eb0010079800ce
:104ab0000000eb00000f7800170037002e00900078
:104ac0001e00400090407800614798001e00900052
:104ad000c800de001e019000f00f20000001610000
:104ae0006e4090000080fb00000069000001400063
:104af0000069290000004100100078000080680073
:104b000010079800408780001e004000ee40900093
:104b1000014878001e0fe8001e007800e30f5000e7
:104b2000e6ff360040878000640040009e00900051
:104b3000814078000148780040878000650040008f
:104b40009e009000c808de0081407800014878008f
:104b500010002000508788004087800010407800b7
:104b60000080fb000080a0002011880010002000c1
:084b70000080fa0000000600bd
:020000040000fa
:104b78006e1000003a00000080000000d61000000f
:104b88001200000080000000ee100000020000008b
:104b98008200000001000000a81000001a000000b8
:104ba80080000000f01000000200000082000000f9
:104bb80021430000c2100000140000008000000023
:104bc800e81000000600000082000000c210060085
:104bd80000ca1000001000006e00000080000000f5
:104be800f21000000200000082000000007d0000ba
:104bf800f4100000020000008000000018110000fe
:104c08001a00000082000000686a6c00747a4c0088
:104c1800000001000002000004000800001000006d
:104c2800000020002b2d230030000000f6100000ab
:104c38002200000082000000303132003334350099
:104c480036373800394142004344450046003000b9
:104c58003132330034353600373839006162630049
:0c4c680064656600000000000000000011
:020000040000fa
:104c74000000fa00306ea900008ea900006ea900a1
:104c8400200ea90021aea800314ea8002f6ea80066
:104c94002f8ea8000e2ea800004ea9001e0ea800fc
:104ca4001f2ea8001f4ea8002f2ea8002f4ea900cb
:104cb400214ea9002e2ea900202ea9001e2ea900e7
:104cc400102ea9001e4ea900104ea9003e4ea800a9
:104cd4001e6ea900106ea90021cea90031cea90034
:104ce400310ea800316ea9001eaea90010aea900b5
:104cf400300ea90010cea80010eea8002e8ea90038
:104d0400208ea9002eaea90020aea9002ecea900a7
:104d140020cea90030aea90030cea800206ea80095
:104d2400308ea80031eea800116ea800118ea800e4
:104d340011aea80011cea800302ea80024cea900e0
:104d44000080fa00000006000000fa00108ea9009e
:104d540021eea800f0c3b300c4e6b700a13380007d
:104d640000fc2f00008060000000a000a033880039
:104d740011118000f0f32f000080600010118800f2
:104d840021428000f0ff28000080600000d0a000d5
:104d9400204288002168a80023e2a80023a2a900d9
:104da4003142800080ff2f00008060000010a000ce
:104db400304288002188a8002002a9000011800048
:104dc4006000b3000011880020a2a9002062a9009d
:104dd40001118000f0cf2f000080600000118800d6
:104de400f00120004011880021e2a8002342a8001d
:104df4000080fa00000006000000fa00f003200022
:104e0400303a8800213a8000f0f32f0000806000df
:104e1400203a8800213a800000fe2f0000806000c4
:104e2400203a88001200200080072000a1092000f9
:104e340033742000804978008149780082497800e1
:104e4400103a8000000178000200a00060042000f5
:104e5400710520002374200080497800814978007e
:104e64008249780000000000113a80000000270009
:104e74008080600000002100808f5000faff3a001b
:104e840000000000113a8000000220000080600051
:104e94000000e000fbff32000000eb000080fa009d
:104ea400000006000000fa0005e1a9000421a900a1
:104eb40004c1a90021088000f0fc2f0000806000dc
:104ec400200888000021ef000077210010088800e6
:104ed40001428000f0ff28000080600000d0a000a4
:104ee400004288000068a9002068a80005e1a80025
:084ef4000080fa000000060036
:020000040000fa
:104efc00f03fb1000180b10006003500ee0309005f
:104f0c0000000000403fb1000180b100fbff3d00fc
:104f1c001000b000203fb0000200350000800900f6
:084f2c00000000000000060077
:020000040000fa
:04570000ffff0000a7
:020000040000fa
:04572000ff1f000067
:020000040000fa
:0457300078ffff00ff
:020000040000fa
:045738005bffff0014
:020000040000fa
:045740009fffff00c8
:020000040000fa
:04575000ddffff007a
:020000040000fa
:04575800feffff0051
:020000040000fa
:04576000ffffff0048
:00000001FF
