:020000040000fa
:080000000002040000000000f2
:020000040000fa
:0400080030040000c0
:020000040000fa
:04000c0030040000bc
:020000040000fa
:0400100030040000b8
:020000040000fa
:0400140030040000b4
:020000040000fa
:0400180030040000b0
:020000040000fa
:04001c0030040000ac
:020000040000fa
:0400200030040000a8
:020000040000fa
:0400240030040000a4
:020000040000fa
:0400280030040000a0
:020000040000fa
:04002c00300400009c
:020000040000fa
:040030003004000098
:020000040000fa
:04003400780300004d
:020000040000fa
:040038003004000090
:020000040000fa
:04003c00300400008c
:020000040000fa
:040040003004000088
:020000040000fa
:040044003004000084
:020000040000fa
:040048003004000080
:020000040000fa
:04004c00300400007c
:020000040000fa
:040050003004000078
:020000040000fa
:040054003004000074
:020000040000fa
:040058003004000070
:020000040000fa
:04005c00300400006c
:020000040000fa
:040060003004000068
:020000040000fa
:040064003004000064
:020000040000fa
:040068003004000060
:020000040000fa
:04006c00300400005c
:020000040000fa
:040070003004000058
:020000040000fa
:040074003004000054
:020000040000fa
:040078003004000050
:020000040000fa
:04007c00300400004c
:020000040000fa
:040080003004000048
:020000040000fa
:040084003004000044
:020000040000fa
:040088003004000040
:020000040000fa
:04008c00300400003c
:020000040000fa
:040090003004000038
:020000040000fa
:040094003004000034
:020000040000fa
:040098003004000030
:020000040000fa
:04009c00300400002c
:020000040000fa
:0400a0003004000028
:020000040000fa
:0400a4003004000024
:020000040000fa
:0400a8003004000020
:020000040000fa
:0400ac00300400001c
:020000040000fa
:0400b0003004000018
:020000040000fa
:0400b4003004000014
:020000040000fa
:0400b8003004000010
:020000040000fa
:0400bc00300400000c
:020000040000fa
:0400c0003004000008
:020000040000fa
:0400c4003004000004
:020000040000fa
:0400c8003004000000
:020000040000fa
:0400cc0030040000fc
:020000040000fa
:0400d00030040000f8
:020000040000fa
:0400d40030040000f4
:020000040000fa
:0400d80030040000f0
:020000040000fa
:0400dc0030040000ec
:020000040000fa
:0400e00030040000e8
:020000040000fa
:0400e40030040000e4
:020000040000fa
:0400e80030040000e0
:020000040000fa
:0400ec0030040000dc
:020000040000fa
:0400f00030040000d8
:020000040000fa
:0400f40030040000d4
:020000040000fa
:0400f80030040000d0
:020000040000fa
:0400fc0030040000cc
:020000040000fa
:0401000030040000c7
:020000040000fa
:0401040030040000c3
:020000040000fa
:0401080030040000bf
:020000040000fa
:04010c0030040000bb
:020000040000fa
:0401100030040000b7
:020000040000fa
:0401140030040000b3
:020000040000fa
:0401180030040000af
:020000040000fa
:04011c0030040000ab
:020000040000fa
:0401200030040000a7
:020000040000fa
:0401240030040000a3
:020000040000fa
:04012800300400009f
:020000040000fa
:04012c00300400009b
:020000040000fa
:040130003004000097
:020000040000fa
:040134003004000093
:020000040000fa
:04013800300400008f
:020000040000fa
:04013c00300400008b
:020000040000fa
:040140003004000087
:020000040000fa
:040144003004000083
:020000040000fa
:04014800300400007f
:020000040000fa
:04014c00300400007b
:020000040000fa
:040150003004000077
:020000040000fa
:040154003004000073
:020000040000fa
:04015800300400006f
:020000040000fa
:04015c00300400006b
:020000040000fa
:040160003004000067
:020000040000fa
:040164003004000063
:020000040000fa
:04016800300400005f
:020000040000fa
:04016c00300400005b
:020000040000fa
:040170003004000057
:020000040000fa
:040174003004000053
:020000040000fa
:04017800300400004f
:020000040000fa
:04017c00300400004b
:020000040000fa
:040180003004000047
:020000040000fa
:040184003004000043
:020000040000fa
:04018800300400003f
:020000040000fa
:04018c00300400003b
:020000040000fa
:040190003004000037
:020000040000fa
:040194003004000033
:020000040000fa
:04019800300400002f
:020000040000fa
:04019c00300400002b
:020000040000fa
:0401a0003004000027
:020000040000fa
:0401a4003004000023
:020000040000fa
:0401a800300400001f
:020000040000fa
:0401ac00300400001b
:020000040000fa
:0401b0003004000017
:020000040000fa
:0401b4003004000013
:020000040000fa
:0401b800300400000f
:020000040000fa
:0401bc00300400000b
:020000040000fa
:0401c0003004000007
:020000040000fa
:0401c4003004000003
:020000040000fa
:0401c80030040000ff
:020000040000fa
:0401cc0030040000fb
:020000040000fa
:0401d00030040000f7
:020000040000fa
:0401d40030040000f3
:020000040000fa
:0401d80030040000ef
:020000040000fa
:0401dc0030040000eb
:020000040000fa
:0401e00030040000e7
:020000040000fa
:0401e40030040000e3
:020000040000fa
:0401e80030040000df
:020000040000fa
:0401ec00fa02000013
:020000040000fa
:0401f00030040000d7
:020000040000fa
:0401f40030040000d3
:020000040000fa
:0401f80030040000cf
:020000040000fa
:0401fc0030040000cb
:020000040000fa
:0402000030040000c6
:020000040000fa
:0402040030040000c2
:020000040000fa
:0402080030040000be
:020000040000fa
:04020c0030040000ba
:020000040000fa
:0402100030040000b6
:020000040000fa
:0402140030040000b2
:020000040000fa
:0402180030040000ae
:020000040000fa
:04021c0030040000aa
:020000040000fa
:0402200030040000a6
:020000040000fa
:0402240030040000a2
:020000040000fa
:04022800300400009e
:020000040000fa
:04022c00300400009a
:020000040000fa
:040230003004000096
:020000040000fa
:040234003004000092
:020000040000fa
:04023800300400008e
:020000040000fa
:04023c00300400008a
:020000040000fa
:040240003004000086
:020000040000fa
:040244003004000082
:020000040000fa
:04024800300400007e
:020000040000fa
:04024c00300400007a
:020000040000fa
:040250003004000076
:020000040000fa
:040254003004000072
:020000040000fa
:04025800300400006e
:020000040000fa
:04025c00300400006a
:020000040000fa
:040260003004000066
:020000040000fa
:040264003004000062
:020000040000fa
:04026800300400005e
:020000040000fa
:04026c00300400005a
:020000040000fa
:040270003004000056
:020000040000fa
:040274003004000052
:020000040000fa
:04027800300400004e
:020000040000fa
:04027c00300400004a
:020000040000fa
:040280003004000046
:020000040000fa
:040284003004000042
:020000040000fa
:04028800300400003e
:020000040000fa
:04028c00300400003a
:020000040000fa
:040290003004000036
:020000040000fa
:040294003004000032
:020000040000fa
:04029800300400002e
:020000040000fa
:04029c00300400002a
:020000040000fa
:0402a0003004000026
:020000040000fa
:0402a4003004000022
:020000040000fa
:0402a800300400001e
:020000040000fa
:0402ac00300400001a
:020000040000fa
:0402b0003004000016
:020000040000fa
:0402b4003004000012
:020000040000fa
:0402b800300400000e
:020000040000fa
:0402bc00300400000a
:020000040000fa
:0402c0003004000006
:020000040000fa
:0402c4003004000002
:020000040000fa
:0402c80030040000fe
:020000040000fa
:0402cc0030040000fa
:020000040000fa
:0402d00030040000f6
:020000040000fa
:0402d40030040000f2
:020000040000fa
:0402d80030040000ee
:020000040000fa
:0402dc0030040000ea
:020000040000fa
:0402e00030040000e6
:020000040000fa
:0402e40030040000e2
:020000040000fa
:0402e80030040000de
:020000040000fa
:0402ec0030040000da
:020000040000fa
:0402f00030040000d6
:020000040000fa
:0402f40030040000d2
:020000040000fa
:0402f80030040000ce
:020000040000fa
:100400002f0321000e7f21000e0188000000000054
:10041000000020000000e000020032000001200087
:1004200020028800140007000f0107000000e00010
:1004300003003a0080802000010020000200370005
:100440000000200001002000810f70000100320038
:100450000f000700000020000000e0000200320052
:1004600000000200000000001c0802000000000064
:100470000040da000000fe00200020000000e00044
:1004800002003200100020009001880000000600e9
:10049000a1028800800478000000eb001f003700f4
:1004a000e284440054a0b4009905ba00e2844400f8
:1004b00054a0b4009906ba00e284440054a0b400e9
:1004c0000006eb00476fde00fd07b200ae018800ba
:1004d000636ce10003003a000ad801000000eb0061
:1004e0000e003700606ce10008003a00004deb00a0
:1004f0000a05e800020039003420ec000af0a000f0
:100500008b05e900f9ff3e00040037006168e10057
:10051000010032000086eb000b00070019c7ba008b
:100520000e04e0001905ba0003003a000a00e000da
:10053000dbff3a0000000600fe07b200ae028800b2
:100540008a047800f5ff37000cd0a300e20f4d00bd
:100550001c00390089027800354dba000a05e80010
:10056000020039003420ec000af0a0008b05e900fd
:100570000f003200254dba000a05e80002003900dc
:100580003420ec000af0a0008b05e90008003200de
:100590000c00e0000600320015cdba000a05e800a4
:1005a000020039003420ec000af0a0008b05e900bd
:1005b0008984e80054a0b4000b00e000e2ff3a0098
:1005c000000006009902ba00055d78008b05e9007d
:1005d000f7ff3200c82ade00055d78008b05e900d0
:1005e000f3ff32000c00e000f1ff320019ddba0029
:1005f000eeff3700809fbe000000fa0022cea80068
:10060000602080003080880070208000508088004a
:10061000802080007080880090208000908088007a
:10062000f0808000610060000000e00029003200de
:10063000308080004300dd004080880050808000d2
:100640004300dd0060808800708080004300dd0092
:1006500080808800908080004300dd00a0808800ba
:1006600020b2200020808800f1808000400020001f
:100670000008dd000000fb004780de00004078003d
:100680000000fb000000e0000f003a001180800035
:1006900020808000808f500006003d001080800088
:1006a0006900400010808800108080002080880051
:1006b000050037001e70a8000230ef002080800087
:1006c00020808800000000002080800030638800c7
:1006d000020037001e30ef00662cef000e28a90044
:1006e00022cea9000080fa004f00be0000400600a4
:1006f000809fbe000000fa00107180004a00de00fa
:10070000614060000080fb00e10f50000d003a00e6
:100710002a30ef0041818000703e2000808f500021
:1007200006003c00408180000000e8004081880015
:1007300040818000708188000d0037001e10a800e5
:100740000b0037002830ef0051818000703e200000
:10075000808f500004003c00508180000000e800c1
:1007600050818800020037001e10a9000000000020
:10077000907080000000d100614060000080fb00ac
:10078000e10f50000b003a002630ef00218180007d
:10079000703e2000808f500004003c0020818000cb
:1007a0000000e800208188000d003700248ea8009a
:1007b0000b0037002430ef0031818000703e2000b4
:1007c000808f500004003c00308180000000e80071
:1007d0003081880002003700248ea900000000004c
:1007e000907080004200de00614060000080fb00ed
:1007f000e10f50000b003a002230ef000181800031
:10080000703e2000808f500004003c00008180007a
:100810000000e800008188000d00370024aea80029
:100820000b0037002030ef0011818000703e200067
:10083000808f500004003c00108180000000e80020
:10084000108188000200370024aea90000000000db
:100850000068a9000080fa004f00be0000400600ba
:0c0860000040da000000fe00000005006f
:020000040000fa
:10086c000000fa00020007000080fa0000000600f9
:10087c000000fa00000ea8000e0ea800002ea80022
:10088c000e2ea800004ea8000e4ea800100ea800b8
:10089c001e0ea800112ea8001f2ea80051188000b3
:1008ac00f0ff23000080600000e0a00050188800da
:1008bc0051188000f00f2c00008060005018880048
:1008cc0041188000f0ff2100008060004018880073
:1008dc0002e3a9002118800000f82f0000806000be
:1008ec0020188800111880000006200001007000fc
:1008fc00101888003118800000c02f0000806000a4
:10090c00f000b300301888001103a9001123a900ce
:10091c00b11e800000f82f0000806000b01e88001f
:10092c00b11e80000030200001007000b01e880055
:10093c001003a9001023a90071188000c0ff2f001c
:10094c00008060000000a00070188800f11e80007c
:10095c0000f82f0000806000f01e8800f11e80005f
:10096c000030200001007000f01e88001083a900e8
:10097c0010a3a90071188000f0fc2f00008060000b
:10098c0070188800d11e800000f82f0000806000d5
:10099c00d01e8800d11e80000030200001007000a5
:1009ac00d01e88001043a9001063a90071188000a4
:1009bc0030ff2f000080600070188800111f80002d
:1009cc0000f82f0000806000101f8800111f8000ad
:1009dc000030200001007000101f880010c3a90017
:1009ec0010e3a90071188000f0f32f000080600064
:1009fc0070188800320007002003a9000dc8a90058
:100a0c002dc8a9002023a9000de8a9002de8a900f4
:100a1c002043a9000e08a9002e08a800c04380009e
:100a2c007000b300c04388002063a8000e28a90002
:100a3c002e28a800c1438000f0f82f0080806000b1
:100a4c000006200001007000c0438800011c8000db
:100a5c0000fe2f00008060007000b300001c8800b6
:100a6c00011c8000f00f2e008080600000702000c0
:100a7c0001007000001c8800111c800000fe2f007b
:100a8c00008060007000b300101c8800111c8000f6
:100a9c00f00f2e00808060000070200001007000bc
:100aac00101c8800211c800000fe2f0000806000bc
:100abc001001b300201c88000080fa000000060022
:100acc000000fa001120800000f0200001007000ee
:100adc001020880001e3a80000e4a800000000003a
:100aec000120800000002800008060000000e00071
:100afc00fbff32000ae3a8000b24a8000b44a9005a
:100b0c000b04a80000000000512080000000280009
:100b1c00008060000000e000fbff32000b24a90005
:100b2c000004a8000000000001208000001020003c
:100b3c00008060000000e000fbff32000a03a80008
:100b4c000444a9000424a8000404a8000464a90017
:100b5c0000000000212080000008200000806000c0
:100b6c000000e000fbff32000044a8000000000081
:100b7c000120800000402000008060000000e000a8
:100b8c00fbff32000a43a8000644a9000624a80073
:100b9c000604a8000664a9000000000031208000b3
:100bac0000082000008060000000e000fbff320025
:100bbc000024a8000000000001208000002020007c
:100bcc00008060000000e000fbff32000a23a80058
:100bdc000544a9000524a8000504a8000564a90083
:100bec000000000021208000000028000080600030
:100bfc000000e000fbff32000064a80000000000d1
:100c0c000120800000802000008060000000e000d7
:100c1c00fbff32000a63a8000744a9000724a800c0
:100c2c000704a8000764a900000000003120800020
:100c3c0000002800008060000000e000fbff320094
:100c4c000080fa00000006000000fa0050c7a8005f
:100c5c0051a7a800813a80000070200001007000ac
:100c6c00803a880051e7a80000000000813a80001b
:100c7c0000002400008060000000e000fbff320058
:100c8c0080bb200001002000d00007001160800014
:100c9c0080ff2f000080600010608800622cef0045
:100cac00612ca900610ca90001638000f0f32f00f6
:100cbc000080600000638800606ca900604ca90093
:100ccc00600ca90063aca900638ca90011638000bf
:100cdc00f03f2f00008060001063880020638000cc
:100cec003000b30020638800f005200060638800aa
:100cfc00f005200050638800c05622002060880058
:100d0c004006200030638800a163800000fc2f00a7
:100d1c00008060000010a000a0638800a163800028
:100d2c00f0ff200000806000a0638800306380002a
:100d3c000000d1009063880063eca90063cca9008b
:100d4c0011638000f0f32f000080600010638800b6
:100d5c00632ca800630ca80001eca800007721000c
:100d6c000100200099000700632ca900630ca90066
:100d7c0063eca80063cca8000000eb000080fa0034
:100d8c00000006000000fa00108ea900f0c3b300aa
:100d9c00c4e6b700a133800000fc2f000080600087
:100dac000000a000a033880011118000f0f32f0088
:100dbc00008060001011880021428000f0ff2800a4
:100dcc000080600000d0a000204288002168a800ac
:100ddc0023e2a80023a2a9003142800080ff2f004b
:100dec00008060000010a000304288002188a8001c
:100dfc002002a900001180006000b30000118800df
:100e0c0020a2a9002062a90001118000f0cf2f00c0
:100e1c000080600000118800f00120004011880063
:100e2c0021e2a8002342a8000080fa00000006007e
:100e3c000000fa00f0032000303a8800213a8000cc
:100e4c00f0f32f0000806000203a8800213a8000e7
:100e5c0000fe2f0000806000203a88001200200065
:100e6c0080072000a10920003374200080497800fd
:100e7c008149780082497800103a8000000178009e
:100e8c000200a000600420007105200023742000e3
:100e9c008049780081497800824978000000000080
:100eac00113a8000000027008080600000002100c3
:100ebc00808f5000faff3a0000000000113a8000c9
:100ecc0000022000008060000000e000fbff320008
:100edc000000eb000080fa00000006000000fa00a1
:100eec002e8ea900208ea9002eaea90020aea9003e
:100efc002ecea90020cea900206ea800116ea9004c
:100f0c00118ea90011aea80011cea9000e0ea800da
:100f1c000e2ea8000e4ea8001e0ea8001f2ea80014
:100f2c001f4ea900114ea8002f2ea900212ea8009b
:100f3c002f4ea900214ea8002e2ea900202ea8006d
:100f4c001e2ea900102ea8001e4ea900104ea8009f
:100f5c00108ea9002e4ea900204ea90020eea9004b
:100f6c00110ea90011eea9001eaea90010aea90029
:100f7c000080fa00000006000000fa0005e1a9005c
:100f8c000421a90004c1a90021088000f0fc2f0055
:100f9c0000806000200888000021ef0080252000e0
:100fac001008880001428000f0ff280000806000db
:100fbc0000c0a000004288000068a9002068a800ba
:0c0fcc0005e1a8000080fa00000006000b
:020000040000fa
:100fd800f03fb1000180b10006003500ee030900c2
:100fe80000000000403fb1000180b100fbff3d0060
:100ff8001000b000203fb00002003500008009005a
:081008000000000000000600da
:020000040000fa
:10101000001000001e000000800000001e100000f4
:1010200012000000800000003010000002000000ec
:08103000800000000000000038
:020000040000fa
:101038000000fa007fff0700a9ff070003ff070071
:1010480008fe0700cdff070022cea900feff3700eb
:020000040000fa
:04570000ffff0000a7
:020000040000fa
:04572000ff1f000067
:020000040000fa
:0457300078ffff00ff
:020000040000fa
:045738005bffff0014
:020000040000fa
:045740009fffff00c8
:020000040000fa
:04575000dfffff0078
:020000040000fa
:04575800feffff0051
:020000040000fa
:04576000ffffff0048
:00000001FF
