:020000040000fa
:080000000002040000000000f2
:020000040000fa
:0400080002030000ef
:020000040000fa
:04000c0002030000eb
:020000040000fa
:0400100002030000e7
:020000040000fa
:0400140002030000e3
:020000040000fa
:0400180002030000df
:020000040000fa
:04001c0002030000db
:020000040000fa
:0400200002030000d7
:020000040000fa
:0400240002030000d3
:020000040000fa
:0400280002030000cf
:020000040000fa
:04002c0002030000cb
:020000040000fa
:0400300002030000c7
:020000040000fa
:0400340002030000c3
:020000040000fa
:0400380002030000bf
:020000040000fa
:04003c0002030000bb
:020000040000fa
:0400400002030000b7
:020000040000fa
:0400440002030000b3
:020000040000fa
:0400480002030000af
:020000040000fa
:04004c0002030000ab
:020000040000fa
:0400500002030000a7
:020000040000fa
:0400540002030000a3
:020000040000fa
:04005800020300009f
:020000040000fa
:04005c00020300009b
:020000040000fa
:040060000203000097
:020000040000fa
:040064000203000093
:020000040000fa
:04006800020300008f
:020000040000fa
:04006c00020300008b
:020000040000fa
:040070000203000087
:020000040000fa
:040074000203000083
:020000040000fa
:04007800020300007f
:020000040000fa
:04007c00020300007b
:020000040000fa
:040080000203000077
:020000040000fa
:040084000203000073
:020000040000fa
:04008800020300006f
:020000040000fa
:04008c00020300006b
:020000040000fa
:040090000203000067
:020000040000fa
:040094000203000063
:020000040000fa
:04009800020300005f
:020000040000fa
:04009c00020300005b
:020000040000fa
:0400a0000203000057
:020000040000fa
:0400a4000203000053
:020000040000fa
:0400a800020300004f
:020000040000fa
:0400ac00020300004b
:020000040000fa
:0400b0000203000047
:020000040000fa
:0400b4000203000043
:020000040000fa
:0400b800020300003f
:020000040000fa
:0400bc00020300003b
:020000040000fa
:0400c0000203000037
:020000040000fa
:0400c4000203000033
:020000040000fa
:0400c800020300002f
:020000040000fa
:0400cc00020300002b
:020000040000fa
:0400d0000203000027
:020000040000fa
:0400d4000203000023
:020000040000fa
:0400d800020300001f
:020000040000fa
:0400dc00020300001b
:020000040000fa
:0400e0000203000017
:020000040000fa
:0400e4000203000013
:020000040000fa
:0400e800020300000f
:020000040000fa
:0400ec00020300000b
:020000040000fa
:0400f0000203000007
:020000040000fa
:0400f4000203000003
:020000040000fa
:0400f80002030000ff
:020000040000fa
:0400fc0002030000fb
:020000040000fa
:0401000002030000f6
:020000040000fa
:0401040002030000f2
:020000040000fa
:0401080002030000ee
:020000040000fa
:04010c0002030000ea
:020000040000fa
:0401100002030000e6
:020000040000fa
:0401140002030000e2
:020000040000fa
:0401180002030000de
:020000040000fa
:04011c0002030000da
:020000040000fa
:0401200002030000d6
:020000040000fa
:0401240002030000d2
:020000040000fa
:0401280002030000ce
:020000040000fa
:04012c0002030000ca
:020000040000fa
:0401300002030000c6
:020000040000fa
:0401340002030000c2
:020000040000fa
:0401380002030000be
:020000040000fa
:04013c0002030000ba
:020000040000fa
:0401400002030000b6
:020000040000fa
:0401440002030000b2
:020000040000fa
:0401480002030000ae
:020000040000fa
:04014c0002030000aa
:020000040000fa
:0401500002030000a6
:020000040000fa
:0401540002030000a2
:020000040000fa
:04015800020300009e
:020000040000fa
:04015c00020300009a
:020000040000fa
:040160000203000096
:020000040000fa
:040164000203000092
:020000040000fa
:04016800020300008e
:020000040000fa
:04016c00020300008a
:020000040000fa
:040170000203000086
:020000040000fa
:040174000203000082
:020000040000fa
:04017800020300007e
:020000040000fa
:04017c00020300007a
:020000040000fa
:040180000203000076
:020000040000fa
:040184000203000072
:020000040000fa
:04018800020300006e
:020000040000fa
:04018c00020300006a
:020000040000fa
:040190000203000066
:020000040000fa
:040194000203000062
:020000040000fa
:04019800020300005e
:020000040000fa
:04019c00020300005a
:020000040000fa
:0401a0000203000056
:020000040000fa
:0401a4000203000052
:020000040000fa
:0401a800020300004e
:020000040000fa
:0401ac00020300004a
:020000040000fa
:0401b0000203000046
:020000040000fa
:0401b4000203000042
:020000040000fa
:0401b800020300003e
:020000040000fa
:0401bc00020300003a
:020000040000fa
:0401c0000203000036
:020000040000fa
:0401c4000203000032
:020000040000fa
:0401c800020300002e
:020000040000fa
:0401cc00020300002a
:020000040000fa
:0401d0000203000026
:020000040000fa
:0401d4000203000022
:020000040000fa
:0401d800020300001e
:020000040000fa
:0401dc00020300001a
:020000040000fa
:0401e0000203000016
:020000040000fa
:0401e4000203000012
:020000040000fa
:0401e800020300000e
:020000040000fa
:0401ec00fa02000013
:020000040000fa
:0401f0000203000006
:020000040000fa
:0401f4000203000002
:020000040000fa
:0401f80002030000fe
:020000040000fa
:0401fc0002030000fa
:020000040000fa
:0402000002030000f5
:020000040000fa
:0402040002030000f1
:020000040000fa
:0402080002030000ed
:020000040000fa
:04020c0002030000e9
:020000040000fa
:0402100002030000e5
:020000040000fa
:0402140002030000e1
:020000040000fa
:0402180002030000dd
:020000040000fa
:04021c0002030000d9
:020000040000fa
:0402200002030000d5
:020000040000fa
:0402240002030000d1
:020000040000fa
:0402280002030000cd
:020000040000fa
:04022c0002030000c9
:020000040000fa
:0402300002030000c5
:020000040000fa
:0402340002030000c1
:020000040000fa
:0402380002030000bd
:020000040000fa
:04023c0002030000b9
:020000040000fa
:0402400002030000b5
:020000040000fa
:0402440002030000b1
:020000040000fa
:0402480002030000ad
:020000040000fa
:04024c0002030000a9
:020000040000fa
:0402500002030000a5
:020000040000fa
:0402540002030000a1
:020000040000fa
:04025800020300009d
:020000040000fa
:04025c000203000099
:020000040000fa
:040260000203000095
:020000040000fa
:040264000203000091
:020000040000fa
:04026800020300008d
:020000040000fa
:04026c000203000089
:020000040000fa
:040270000203000085
:020000040000fa
:040274000203000081
:020000040000fa
:04027800020300007d
:020000040000fa
:04027c000203000079
:020000040000fa
:040280000203000075
:020000040000fa
:040284000203000071
:020000040000fa
:04028800020300006d
:020000040000fa
:04028c000203000069
:020000040000fa
:040290000203000065
:020000040000fa
:040294000203000061
:020000040000fa
:04029800020300005d
:020000040000fa
:04029c000203000059
:020000040000fa
:0402a0000203000055
:020000040000fa
:0402a4000203000051
:020000040000fa
:0402a800020300004d
:020000040000fa
:0402ac000203000049
:020000040000fa
:0402b0000203000045
:020000040000fa
:0402b4000203000041
:020000040000fa
:0402b800020300003d
:020000040000fa
:0402bc000203000039
:020000040000fa
:0402c0000203000035
:020000040000fa
:0402c4000203000031
:020000040000fa
:0402c800020300002d
:020000040000fa
:0402cc000203000029
:020000040000fa
:0402d0000203000025
:020000040000fa
:0402d4000203000021
:020000040000fa
:0402d800020300001d
:020000040000fa
:0402dc000203000019
:020000040000fa
:0402e0000203000015
:020000040000fa
:0402e4000203000011
:020000040000fa
:0402e800020300000d
:020000040000fa
:0402ec000203000009
:020000040000fa
:0402f0000203000005
:020000040000fa
:0402f4000203000001
:020000040000fa
:0402f80002030000fd
:020000040000fa
:100400002f0721000e7f21000e0188000000000050
:10041000000020000000e000020032000001200087
:100420002002880014000700780007000000e000a8
:1004300003003a00c07820000100200002003700cd
:100440000000200001002000810f70000100320038
:100450000f000700000020000000e0000200320052
:100460000000020000000000a207020000000000df
:100470000040da000000fe00200020000000e00044
:1004800002003200100020009001880000000600e9
:10049000a1028800800478000000eb001f003700f4
:1004a000e284440054a0b4009905ba00e2844400f8
:1004b00054a0b4009906ba00e284440054a0b400e9
:1004c0000006eb00476fde00fd07b200ae018800ba
:1004d000636ce10003003a000ad801000000eb0061
:1004e0000e003700606ce10008003a00004deb00a0
:1004f0000a05e800020039003420ec000af0a000f0
:100500008b05e900f9ff3e00040037006168e10057
:10051000010032000086eb000b00070019c7ba008b
:100520000e04e0001905ba0003003a000a00e000da
:10053000dbff3a0000000600fe07b200ae028800b2
:100540008a047800f5ff37000cd0a300e20f4d00bd
:100550001c00390089027800354dba000a05e80010
:10056000020039003420ec000af0a0008b05e900fd
:100570000f003200254dba000a05e80002003900dc
:100580003420ec000af0a0008b05e90008003200de
:100590000c00e0000600320015cdba000a05e800a4
:1005a000020039003420ec000af0a0008b05e900bd
:1005b0008984e80054a0b4000b00e000e2ff3a0098
:1005c000000006009902ba00055d78008b05e9007d
:1005d000f7ff3200c82ade00055d78008b05e900d0
:1005e000f3ff32000c00e000f1ff320019ddba0029
:1005f000eeff37000000fa000e28a9000080fa0084
:10060000004006000040da000000fe000000050087
:020000040000fa
:100610000000fa00020007000080fa000000060057
:100620000000fa00000ea8000e0ea800002ea80080
:100630000e2ea800100ea8001e0ea800212ea80045
:100640002f2ea800304ea8003e4ea8002f8ea800e6
:10065000218ea80051188000f0ff23000080600068
:1006600000e0a0005018880051188000f00f2c0006
:10067000008060005018880041188000f0ff2100c1
:10068000008060004018880002e3a9002118800063
:1006900000f82f00008060002018880011188000ea
:1006a000000620000100700010188800311880003a
:1006b00000c02f0000806000f000b30030188800f8
:1006c0001403a9001423a900b11e800000f82f0014
:1006d00000806000b01e8800b11e80000030200045
:1006e00001007000b01e88001003a9001023a900ab
:1006f00071188000c0ff2f00008060000000a00083
:1007000070188800f11e800000f82f000080600043
:10071000f01e8800f11e80000030200001007000f3
:10072000f01e880012c3a90012e3a900711880000e
:10073000f0fc2f00008060000040a00070188800ce
:10074000d11e800000f82f0000806000d01e8800bd
:10075000d11e80000030200001007000d01e8800f3
:100760001043a9001063a9007118800030ff2f000a
:100770000080600070188800111f800000f82f00b2
:1007800000806000101f8800111f800000302000d2
:1007900001007000101f880010c3a90010e3a90019
:1007a00071188000f0f32f0000806000701888003e
:1007b000330007002003a9000dc8a9002dc8a90017
:1007c0002023a9000de8a9002de8a9002043a900d5
:1007d0000e08a9002e08a9002063a8000e28a90071
:1007e0002e28a800c14380000007200001007000ef
:1007f000c0438800011c800000fe2f0000806000c4
:100800007000b300001c8800011c8000f00f2e0057
:10081000808060000070200001007000001c8800d3
:10082000111c800000fe2f00008060007000b300eb
:10083000101c8800111c8000f00f2e0080806000ca
:100840000070200001007000101c8800811c8000d6
:1008500000fe2f00008060001001b300801c8800a3
:1008600071448000f0ff28008080600000002600b6
:1008700001007000704488000080fa00000006004b
:100880000000fa001120800000f02000010070003c
:100890001020880001e3a80000e4a8000000000088
:1008a0000120800000002800008060000000e000bf
:1008b000fbff32000ae3a8000b24a8000b44a900a8
:1008c0000b04a80000000000512080000000280058
:1008d000008060000000e000fbff32000b24a90054
:1008e0000004a8000000000001208000001020008b
:1008f000008060000000e000fbff32000a03a80057
:100900000444a9000424a8000404a8000464a90065
:10091000000000002120800000082000008060000e
:100920000000e000fbff32000044a80000000000cf
:100930000120800000402000008060000000e000f6
:10094000fbff32000a43a8000644a9000624a800c1
:100950000604a8000664a900000000003120800001
:1009600000082000008060000000e000fbff320073
:100970000024a800000000000120800000202000ca
:10098000008060000000e000fbff32000a23a800a6
:100990000544a9000524a8000504a8000564a900d1
:1009a000000000002120800000002800008060007e
:1009b0000000e000fbff32000064a800000000001f
:1009c0000120800000802000008060000000e00026
:1009d000fbff32000a63a8000744a9000724a8000f
:1009e0000704a8000764a90000000000312080006f
:1009f00000002800008060000000e000fbff3200e3
:100a00000080fa00000006000000fa0050c7a800ad
:100a100051a7a800813a80000070200001007000fa
:100a2000803a880051e7a80000000000813a800069
:100a300000002400008060000000e000fbff3200a6
:100a400080bb20000100200025010700612ca900c7
:100a5000610ca90001638000f0f32f0000806000aa
:100a600000638800606ca900604ca900600ca900bc
:100a700063aca900638ca90011638000f03f2f00d4
:100a80000080600000b0a000106388002063800038
:100a90003000b30020638800705820006063880035
:100aa0007058200050638800a12ca900a10ca90057
:100ab00001658000f0f32f00008060000065880071
:100ac000a06ca900a04ca900a00ca900a3aca9008f
:100ad000a38ca90011658000f03f2f00008060000a
:100ae00000b0a00010658800206580003000b300d1
:100af00020658800705820006065880070582000cc
:100b000050658800222cef00904d22002060880064
:100b100040062000306388004006200030658800d1
:100b20008038210030628800a163800000fc2f0023
:100b3000008060000010a000a0638800a163800016
:100b4000f0ff20000080600000c0a000a0638800cb
:100b50002060800040638800306380000000d10086
:100b600090638800a82cef0065eca9002163800049
:100b700070f02f00008060002063880021638000f7
:100b8000f03f28000080600020638800652ca900e9
:100b9000650ca900206380003000b300206388004a
:100ba0001163800030ff2f00008060001063880018
:100bb00000402a00d0638800803e2000e063880067
:100bc000a5eca9002165800070f02f000080600076
:100bd0002065880021658000f03f280000806000cb
:100be00020658800a52ca900a50ca900206580001f
:100bf0003000b300206588001165800030ff2f00b1
:100c0000008060001065880000402a00d0658800e0
:100c1000803e2000e065880063eca90063cca90059
:100c2000a3eca900a3cca90011638000f0f32f006e
:100c30000080600010638800632ca800630ca8008b
:100c400011658000f0f32f000080600010658800bf
:100c5000a32ca800a30ca80001eca8000077210099
:100c6000010020009e000700632ca900630ca9006e
:100c7000a32ca900a30ca90063eca80063cca800d6
:100c8000a3eca800a3cca8000000eb000080fa00b1
:100c9000000006000000fa00108ea90021eea80056
:100ca000f0c3b300c4e6b700a133800000fc2f00fe
:100cb000008060000000a000a033880011118000b7
:100cc000f0f32f00008060001011880021428000a6
:100cd000f0ff28000080600000d0a00020428800c3
:100ce0002168a80023e2a80023a2a90031428000c5
:100cf00080ff2f00008060000010a00030428800bc
:100d00002188a8002002a900001180006000b30023
:100d10000011880020a2a9002062a9000111800012
:100d2000f0cf2f000080600000118800f00120004b
:100d30004011880021e2a8002342a8000080fa00a8
:100d4000000006000000fa00f0032000303a88009e
:100d5000213a8000f0f32f0000806000203a8800e4
:100d6000213a800000fe2f0000806000203a8800b9
:100d70001200200080072000a10920003374200009
:100d8000804978008149780082497800103a8000d3
:100d9000000178000200a00060042000710520001e
:100da00023742000804978008149780082497800c6
:100db00000000000113a80000000270080806000e1
:100dc00000002100808f5000faff3a000000000070
:100dd000113a800000022000008060000000e00066
:100de000fbff32000000eb000080fa00000006006c
:100df0000000fa002e8ea900208ea9002eaea900b8
:100e000020aea9002ecea90020cea800206ea800fa
:100e1000116ea900118ea90011aea80011cea90073
:100e20000e0ea8000e2ea8000e4ea8001e0ea80042
:100e30001f2ea8001f4ea900114ea8002f2ea9009a
:100e4000212ea8002f4ea900214ea8002e2ea90069
:100e5000202ea8001e2ea900102ea8001e4ea900ac
:100e6000104ea800108ea9002e4ea900204ea900f9
:100e700020eea900110ea90011eea9001eaea900d6
:100e800010aea9000080fa00000006000000fa0081
:100e900005e1a9000421a90004c1a90021088000de
:100ea000f0fc2f0000806000200888000021ef0087
:100eb000007721001008880001428000f0ff280020
:100ec0000080600000d0a000004288000068a900f7
:100ed0002068a90005e1a9000080fa0000000600d2
:020000040000fa
:100ee000f03fb1000180b10006003500ee030900bb
:100ef00000000000403fb1000180b100fbff3d0059
:100f00001000b000203fb000020035000080090052
:080f10000000000000000600d3
:020000040000fa
:100f1800001000006e000000800000006e1000004d
:100f28000200000082000000007d00007010000038
:0c0f38000200000080000000000000002b
:020000040000fa
:100f44000000fa007eff0700a8ff0700ffff37003c
:020000040000fa
:04570000ffff0000a7
:020000040000fa
:04572000ff1f000067
:020000040000fa
:0457300078ffff00ff
:020000040000fa
:045738005bffff0014
:020000040000fa
:045740009fffff00c8
:020000040000fa
:04575000ddffff007a
:020000040000fa
:04575800feffff0051
:020000040000fa
:04576000ffffff0048
:00000001FF
